{
  "contractName": "Builder",
  "abi": [
    {
      "inputs": [],
      "stateMutability": "nonpayable",
      "type": "constructor"
    },
    {
      "inputs": [
        {
          "internalType": "address",
          "name": "",
          "type": "address"
        }
      ],
      "name": "housesCount",
      "outputs": [
        {
          "internalType": "uint256",
          "name": "",
          "type": "uint256"
        }
      ],
      "stateMutability": "view",
      "type": "function",
      "constant": true
    },
    {
      "inputs": [
        {
          "internalType": "address",
          "name": "",
          "type": "address"
        },
        {
          "internalType": "uint256",
          "name": "",
          "type": "uint256"
        }
      ],
      "name": "maps",
      "outputs": [
        {
          "internalType": "uint8",
          "name": "",
          "type": "uint8"
        }
      ],
      "stateMutability": "view",
      "type": "function",
      "constant": true
    },
    {
      "inputs": [
        {
          "internalType": "uint8",
          "name": "",
          "type": "uint8"
        }
      ],
      "name": "prices",
      "outputs": [
        {
          "internalType": "uint256",
          "name": "",
          "type": "uint256"
        }
      ],
      "stateMutability": "view",
      "type": "function",
      "constant": true
    },
    {
      "inputs": [
        {
          "internalType": "address",
          "name": "",
          "type": "address"
        }
      ],
      "name": "staked",
      "outputs": [
        {
          "internalType": "uint256",
          "name": "",
          "type": "uint256"
        }
      ],
      "stateMutability": "view",
      "type": "function",
      "constant": true
    },
    {
      "inputs": [],
      "name": "addPlayer",
      "outputs": [
        {
          "internalType": "bool",
          "name": "",
          "type": "bool"
        }
      ],
      "stateMutability": "nonpayable",
      "type": "function"
    },
    {
      "inputs": [
        {
          "internalType": "uint8",
          "name": "_pos",
          "type": "uint8"
        },
        {
          "internalType": "uint8",
          "name": "_bId",
          "type": "uint8"
        }
      ],
      "name": "setPosition",
      "outputs": [
        {
          "internalType": "bool",
          "name": "",
          "type": "bool"
        }
      ],
      "stateMutability": "payable",
      "type": "function",
      "payable": true
    },
    {
      "inputs": [],
      "name": "getMap",
      "outputs": [
        {
          "internalType": "uint8[81]",
          "name": "",
          "type": "uint8[81]"
        }
      ],
      "stateMutability": "view",
      "type": "function",
      "constant": true
    },
    {
      "inputs": [],
      "name": "getStaked",
      "outputs": [
        {
          "internalType": "uint256",
          "name": "",
          "type": "uint256"
        }
      ],
      "stateMutability": "view",
      "type": "function",
      "constant": true
    },
    {
      "inputs": [],
      "name": "getHouses",
      "outputs": [
        {
          "internalType": "uint256",
          "name": "",
          "type": "uint256"
        }
      ],
      "stateMutability": "view",
      "type": "function",
      "constant": true
    }
  ],
  "bytecode": "0x608060405234801561001057600080fd5b5067016345785d8a000060016000600160ff16815260200190815260200160002081905550610ba2806100446000396000f3fe6080604052600436106100865760003560e01c8063ad3de14c11610059578063ad3de14c1461016d578063bd7669cc14610198578063c59abf9f146101c8578063f1e714ee146101f3578063fd5f33ec1461023057610086565b806327b5db8a1461008b57806375c30a9f146100b65780638a3177a3146100f357806398807d8414610130575b600080fd5b34801561009757600080fd5b506100a061025b565b6040516100ad91906108f8565b60405180910390f35b3480156100c257600080fd5b506100dd60048036038101906100d89190610734565b6102bc565b6040516100ea9190610933565b60405180910390f35b3480156100ff57600080fd5b5061011a600480360381019061011591906107a1565b6102d4565b6040516101279190610933565b60405180910390f35b34801561013c57600080fd5b5061015760048036038101906101529190610734565b6102ec565b6040516101649190610933565b60405180910390f35b34801561017957600080fd5b50610182610304565b60405161018f91906108dc565b60405180910390f35b6101b260048036038101906101ad91906107ce565b6103b2565b6040516101bf91906108f8565b60405180910390f35b3480156101d457600080fd5b506101dd610554565b6040516101ea9190610933565b60405180910390f35b3480156101ff57600080fd5b5061021a60048036038101906102159190610761565b61059b565b604051610227919061094e565b60405180910390f35b34801561023c57600080fd5b506102456105d4565b6040516102529190610933565b60405180910390f35b600061026561061b565b80600260003373ffffffffffffffffffffffffffffffffffffffff1673ffffffffffffffffffffffffffffffffffffffff1681526020019081526020016000209060516102b392919061063e565b50600191505090565b60046020528060005260406000206000915090505481565b60016020528060005260406000206000915090505481565b60036020528060005260406000206000915090505481565b61030c61061b565b600260003373ffffffffffffffffffffffffffffffffffffffff1673ffffffffffffffffffffffffffffffffffffffff1681526020019081526020016000206051806020026040519081016040528092919082605180156103a8576020028201916000905b82829054906101000a900460ff1660ff16815260200190600101906020826000010492830192600103820291508084116103715790505b5050505050905090565b600081600160008260ff1660ff168152602001908152602001600020543414610410576040517f08c379a000000000000000000000000000000000000000000000000000000000815260040161040790610913565b60405180910390fd5b82600260003373ffffffffffffffffffffffffffffffffffffffff1673ffffffffffffffffffffffffffffffffffffffff1681526020019081526020016000208560ff166051811061046557610464610aca565b5b602091828204019190066101000a81548160ff021916908360ff160217905550600160008460ff1660ff16815260200190815260200160002054600360003373ffffffffffffffffffffffffffffffffffffffff1673ffffffffffffffffffffffffffffffffffffffff16815260200190815260200160002060008282546104ed91906109a7565b92505081905550600460003373ffffffffffffffffffffffffffffffffffffffff1673ffffffffffffffffffffffffffffffffffffffff168152602001908152602001600020600081548092919061054490610a52565b9190505550600191505092915050565b6000600360003373ffffffffffffffffffffffffffffffffffffffff1673ffffffffffffffffffffffffffffffffffffffff16815260200190815260200160002054905090565b600260205281600052604060002081605181106105b757600080fd5b60209182820401919006915091509054906101000a900460ff1681565b6000600460003373ffffffffffffffffffffffffffffffffffffffff1673ffffffffffffffffffffffffffffffffffffffff16815260200190815260200160002054905090565b60405180610a200160405280605190602082028036833780820191505090505090565b826051601f016020900481019282156106c75791602002820160005b8382111561069857835183826101000a81548160ff021916908360ff160217905550926020019260010160208160000104928301926001030261065a565b80156106c55782816101000a81549060ff0219169055600101602081600001049283019260010302610698565b505b5090506106d491906106d8565b5090565b5b808211156106f15760008160009055506001016106d9565b5090565b60008135905061070481610b27565b92915050565b60008135905061071981610b3e565b92915050565b60008135905061072e81610b55565b92915050565b60006020828403121561074a57610749610af9565b5b6000610758848285016106f5565b91505092915050565b6000806040838503121561077857610777610af9565b5b6000610786858286016106f5565b92505060206107978582860161070a565b9150509250929050565b6000602082840312156107b7576107b6610af9565b5b60006107c58482850161071f565b91505092915050565b600080604083850312156107e5576107e4610af9565b5b60006107f38582860161071f565b92505060206108048582860161071f565b9150509250929050565b600061081a83836108be565b60208301905092915050565b61082f81610973565b610839818461098b565b925061084482610969565b8060005b8381101561087557815161085c878261080e565b96506108678361097e565b925050600181019050610848565b505050505050565b61088681610a0f565b82525050565b6000610899601883610996565b91506108a482610afe565b602082019050919050565b6108b881610a3b565b82525050565b6108c781610a45565b82525050565b6108d681610a45565b82525050565b6000610a20820190506108f26000830184610826565b92915050565b600060208201905061090d600083018461087d565b92915050565b6000602082019050818103600083015261092c8161088c565b9050919050565b600060208201905061094860008301846108af565b92915050565b600060208201905061096360008301846108cd565b92915050565b6000819050919050565b600060519050919050565b6000602082019050919050565b600081905092915050565b600082825260208201905092915050565b60006109b282610a3b565b91506109bd83610a3b565b9250827fffffffffffffffffffffffffffffffffffffffffffffffffffffffffffffffff038211156109f2576109f1610a9b565b5b828201905092915050565b6000610a0882610a1b565b9050919050565b60008115159050919050565b600073ffffffffffffffffffffffffffffffffffffffff82169050919050565b6000819050919050565b600060ff82169050919050565b6000610a5d82610a3b565b91507fffffffffffffffffffffffffffffffffffffffffffffffffffffffffffffffff821415610a9057610a8f610a9b565b5b600182019050919050565b7f4e487b7100000000000000000000000000000000000000000000000000000000600052601160045260246000fd5b7f4e487b7100000000000000000000000000000000000000000000000000000000600052603260045260246000fd5b600080fd5b7f446966666572656e742076616c75652061747461636865640000000000000000600082015250565b610b30816109fd565b8114610b3b57600080fd5b50565b610b4781610a3b565b8114610b5257600080fd5b50565b610b5e81610a45565b8114610b6957600080fd5b5056fea26469706673582212204397c2d262eb93b301b068408d9f578c4c2583638a908a5281b99398b0889b2864736f6c63430008070033",
  "immutableReferences": {},
  "source": "// SPDX-License-Identifier: GPL-3.0\r\n\r\npragma solidity ^0.8.7; \r\n\r\ncontract Builder { \r\n\r\n    address owner; \r\n\r\n    mapping(uint8 => uint256) public prices; \r\n\r\n    mapping(address => uint8[81]) public maps; \r\n    mapping(address => uint256) public staked;\r\n    mapping(address => uint256) public housesCount;  \r\n\r\n    constructor() {\r\n        prices[1] = 0.1 ether; \r\n    }\r\n\r\n    function addPlayer() external returns (bool) { \r\n        uint8[81] memory newMap; \r\n        maps[msg.sender] = newMap;  \r\n        return true; \r\n    }\r\n\r\n    function setPosition(uint8 _pos, uint8 _bId) external \r\n        priced(_bId) payable returns (bool) {\r\n        \r\n        maps[msg.sender][_pos] = _bId; \r\n        staked[msg.sender] += prices[_bId];\r\n        housesCount[msg.sender]++; \r\n        return true; \r\n    }\r\n\r\n    \r\n    function getMap() external view returns (uint8[81] memory) { \r\n        return maps[msg.sender]; \r\n    }\r\n\r\n    function getStaked() external view returns (uint256) {\r\n        return staked[msg.sender]; \r\n    }\r\n\r\n    function getHouses() external view returns (uint256) {\r\n        return housesCount[msg.sender]; \r\n    }\r\n\r\n/*\r\n    modifier onlyOwner {\r\n        require(msg.sender == owner); \r\n        _; \r\n    }\r\n*/ \r\n\r\n    modifier priced(uint8 _bId) {\r\n        require(msg.value == prices[_bId], \r\n        'Different value attached');\r\n        _; \r\n    }\r\n\r\n}",
  "sourcePath": "C:/Github/SeedFarm/contracts/Builder.sol",
  "compiler": {
    "name": "solc",
    "version": "0.8.7+commit.e28d00a7.Emscripten.clang"
  },
  "schemaVersion": "3.3.4",
  "updatedAt": "2021-12-22T22:12:22.960Z",
  "networkType": "ethereum",
  "devdoc": {
    "kind": "dev",
    "methods": {},
    "version": 1
  },
  "userdoc": {
    "kind": "user",
    "methods": {},
    "version": 1
  }
}