{
  "contractName": "Builder",
  "abi": [
    {
      "inputs": [
        {
          "internalType": "contract ERC20",
          "name": "_ONE",
          "type": "address"
        },
        {
          "internalType": "contract ISeedToken",
          "name": "_SEED",
          "type": "address"
        }
      ],
      "stateMutability": "nonpayable",
      "type": "constructor"
    },
    {
      "anonymous": false,
      "inputs": [
        {
          "indexed": true,
          "internalType": "address",
          "name": "from",
          "type": "address"
        },
        {
          "indexed": false,
          "internalType": "uint256",
          "name": "amount",
          "type": "uint256"
        }
      ],
      "name": "Stake",
      "type": "event"
    },
    {
      "anonymous": false,
      "inputs": [
        {
          "indexed": true,
          "internalType": "address",
          "name": "from",
          "type": "address"
        },
        {
          "indexed": false,
          "internalType": "uint256",
          "name": "amount",
          "type": "uint256"
        }
      ],
      "name": "Unstake",
      "type": "event"
    },
    {
      "anonymous": false,
      "inputs": [
        {
          "indexed": true,
          "internalType": "address",
          "name": "from",
          "type": "address"
        }
      ],
      "name": "YieldWithdraw",
      "type": "event"
    },
    {
      "inputs": [],
      "name": "ONE",
      "outputs": [
        {
          "internalType": "contract ERC20",
          "name": "",
          "type": "address"
        }
      ],
      "stateMutability": "view",
      "type": "function"
    },
    {
      "inputs": [],
      "name": "SEED",
      "outputs": [
        {
          "internalType": "contract ISeedToken",
          "name": "",
          "type": "address"
        }
      ],
      "stateMutability": "view",
      "type": "function"
    },
    {
      "inputs": [
        {
          "internalType": "address",
          "name": "",
          "type": "address"
        }
      ],
      "name": "housesCount",
      "outputs": [
        {
          "internalType": "uint256",
          "name": "",
          "type": "uint256"
        }
      ],
      "stateMutability": "view",
      "type": "function"
    },
    {
      "inputs": [
        {
          "internalType": "address",
          "name": "",
          "type": "address"
        }
      ],
      "name": "isStaking",
      "outputs": [
        {
          "internalType": "bool",
          "name": "",
          "type": "bool"
        }
      ],
      "stateMutability": "view",
      "type": "function"
    },
    {
      "inputs": [
        {
          "internalType": "address",
          "name": "",
          "type": "address"
        },
        {
          "internalType": "uint256",
          "name": "",
          "type": "uint256"
        }
      ],
      "name": "map",
      "outputs": [
        {
          "internalType": "uint8",
          "name": "",
          "type": "uint8"
        }
      ],
      "stateMutability": "view",
      "type": "function"
    },
    {
      "inputs": [],
      "name": "owner",
      "outputs": [
        {
          "internalType": "address",
          "name": "",
          "type": "address"
        }
      ],
      "stateMutability": "view",
      "type": "function"
    },
    {
      "inputs": [
        {
          "internalType": "address",
          "name": "",
          "type": "address"
        }
      ],
      "name": "pending",
      "outputs": [
        {
          "internalType": "uint256",
          "name": "",
          "type": "uint256"
        }
      ],
      "stateMutability": "view",
      "type": "function"
    },
    {
      "inputs": [
        {
          "internalType": "address",
          "name": "",
          "type": "address"
        }
      ],
      "name": "staked",
      "outputs": [
        {
          "internalType": "uint256",
          "name": "",
          "type": "uint256"
        }
      ],
      "stateMutability": "view",
      "type": "function"
    },
    {
      "inputs": [
        {
          "internalType": "address",
          "name": "",
          "type": "address"
        },
        {
          "internalType": "uint256",
          "name": "",
          "type": "uint256"
        }
      ],
      "name": "stakedTime",
      "outputs": [
        {
          "internalType": "uint256",
          "name": "",
          "type": "uint256"
        }
      ],
      "stateMutability": "view",
      "type": "function"
    },
    {
      "inputs": [
        {
          "internalType": "uint256",
          "name": "",
          "type": "uint256"
        }
      ],
      "name": "structures",
      "outputs": [
        {
          "internalType": "uint256",
          "name": "price",
          "type": "uint256"
        },
        {
          "internalType": "uint256",
          "name": "time",
          "type": "uint256"
        },
        {
          "internalType": "uint256",
          "name": "rate",
          "type": "uint256"
        }
      ],
      "stateMutability": "view",
      "type": "function"
    },
    {
      "inputs": [
        {
          "internalType": "uint8",
          "name": "_pos",
          "type": "uint8"
        },
        {
          "internalType": "uint8",
          "name": "_sId",
          "type": "uint8"
        }
      ],
      "name": "placeStructure",
      "outputs": [
        {
          "internalType": "bool",
          "name": "",
          "type": "bool"
        }
      ],
      "stateMutability": "payable",
      "type": "function"
    },
    {
      "inputs": [
        {
          "internalType": "uint8",
          "name": "_pos",
          "type": "uint8"
        }
      ],
      "name": "removeStructure",
      "outputs": [
        {
          "internalType": "bool",
          "name": "",
          "type": "bool"
        }
      ],
      "stateMutability": "nonpayable",
      "type": "function"
    },
    {
      "inputs": [
        {
          "internalType": "uint8",
          "name": "_pos",
          "type": "uint8"
        },
        {
          "internalType": "uint8",
          "name": "_sId",
          "type": "uint8"
        }
      ],
      "name": "withdrawTileYield",
      "outputs": [
        {
          "internalType": "bool",
          "name": "",
          "type": "bool"
        }
      ],
      "stateMutability": "nonpayable",
      "type": "function"
    },
    {
      "inputs": [
        {
          "internalType": "uint8",
          "name": "_pos",
          "type": "uint8"
        },
        {
          "internalType": "uint8",
          "name": "_sId",
          "type": "uint8"
        }
      ],
      "name": "calculateReward",
      "outputs": [
        {
          "internalType": "uint256",
          "name": "",
          "type": "uint256"
        }
      ],
      "stateMutability": "view",
      "type": "function"
    },
    {
      "inputs": [],
      "name": "getMap",
      "outputs": [
        {
          "internalType": "uint8[81]",
          "name": "",
          "type": "uint8[81]"
        }
      ],
      "stateMutability": "view",
      "type": "function"
    },
    {
      "inputs": [],
      "name": "getStaked",
      "outputs": [
        {
          "internalType": "uint256",
          "name": "",
          "type": "uint256"
        }
      ],
      "stateMutability": "view",
      "type": "function"
    },
    {
      "inputs": [],
      "name": "getHouses",
      "outputs": [
        {
          "internalType": "uint256",
          "name": "",
          "type": "uint256"
        }
      ],
      "stateMutability": "view",
      "type": "function"
    },
    {
      "inputs": [
        {
          "internalType": "uint8",
          "name": "_pos",
          "type": "uint8"
        }
      ],
      "name": "isReadyForWithdraw",
      "outputs": [
        {
          "internalType": "bool",
          "name": "",
          "type": "bool"
        }
      ],
      "stateMutability": "view",
      "type": "function"
    }
  ],
  "bytecode": "0x60806040523480156200001157600080fd5b5060405162001a8738038062001a87833981810160405281019062000037919062000175565b336000806101000a81548173ffffffffffffffffffffffffffffffffffffffff021916908373ffffffffffffffffffffffffffffffffffffffff16021790555081600860006101000a81548173ffffffffffffffffffffffffffffffffffffffff021916908373ffffffffffffffffffffffffffffffffffffffff16021790555080600960006101000a81548173ffffffffffffffffffffffffffffffffffffffff021916908373ffffffffffffffffffffffffffffffffffffffff16021790555060006003600060018152602001908152602001600020905067016345785d8a000081600001819055506138408160010181905550670de0b6b3a7640000816002018190555050505062000251565b60008151905062000158816200021d565b92915050565b6000815190506200016f8162000237565b92915050565b600080604083850312156200018f576200018e62000218565b5b60006200019f8582860162000147565b9250506020620001b2858286016200015e565b9150509250929050565b6000620001c982620001f8565b9050919050565b6000620001dd82620001bc565b9050919050565b6000620001f182620001bc565b9050919050565b600073ffffffffffffffffffffffffffffffffffffffff82169050919050565b600080fd5b6200022881620001d0565b81146200023457600080fd5b50565b6200024281620001e4565b81146200024e57600080fd5b50565b61182680620002616000396000f3fe6080604052600436106101095760003560e01c8063975542a111610095578063ad3de14c11610064578063ad3de14c14610405578063c2ee3a0814610430578063c59abf9f1461045b578063c6313eb714610486578063fd5f33ec146104b657610109565b8063975542a11461030f57806398807d841461034c5780639dfb94ba146103895780639e3cb488146103c657610109565b80635eebea20116100dc5780635eebea20146101f05780636f49712b1461022d57806375c30a9f1461026a5780638da5cb5b146102a757806394148d4f146102d257610109565b80630edc47371461010e578063312b321d146101395780634aec48c9146101765780635574f577146101b3575b600080fd5b34801561011a57600080fd5b506101236104e1565b60405161013091906113d0565b60405180910390f35b34801561014557600080fd5b50610160600480360381019061015b91906111b9565b610507565b60405161016d919061144b565b60405180910390f35b34801561018257600080fd5b5061019d600480360381019061019891906110f2565b61054a565b6040516101aa919061144b565b60405180910390f35b3480156101bf57600080fd5b506101da60048036038101906101d591906111b9565b610572565b6040516101e7919061139a565b60405180910390f35b3480156101fc57600080fd5b50610217600480360381019061021291906110c5565b6106f2565b604051610224919061144b565b60405180910390f35b34801561023957600080fd5b50610254600480360381019061024f91906110c5565b61070a565b604051610261919061139a565b60405180910390f35b34801561027657600080fd5b50610291600480360381019061028c91906110c5565b61072a565b60405161029e919061144b565b60405180910390f35b3480156102b357600080fd5b506102bc610742565b6040516102c9919061133a565b60405180910390f35b3480156102de57600080fd5b506102f960048036038101906102f4919061118c565b610766565b604051610306919061139a565b60405180910390f35b34801561031b57600080fd5b506103366004803603810190610331919061118c565b610819565b604051610343919061139a565b60405180910390f35b34801561035857600080fd5b50610373600480360381019061036e91906110c5565b610a78565b604051610380919061144b565b60405180910390f35b34801561039557600080fd5b506103b060048036038101906103ab91906110f2565b610a90565b6040516103bd919061149d565b60405180910390f35b3480156103d257600080fd5b506103ed60048036038101906103e8919061115f565b610ac9565b6040516103fc93929190611466565b60405180910390f35b34801561041157600080fd5b5061041a610af3565b604051610427919061137e565b60405180910390f35b34801561043c57600080fd5b50610445610ba1565b60405161045291906113b5565b60405180910390f35b34801561046757600080fd5b50610470610bc7565b60405161047d919061144b565b60405180910390f35b6104a0600480360381019061049b91906111b9565b610c0e565b6040516104ad919061139a565b60405180910390f35b3480156104c257600080fd5b506104cb610f51565b6040516104d8919061144b565b60405180910390f35b600960009054906101000a900473ffffffffffffffffffffffffffffffffffffffff1681565b6000806105148484610f98565b9050600081600360008660ff1681526020019081526020016000206002015461053d91906114f6565b9050809250505092915050565b6006602052816000526040600020816051811061056657600080fd5b01600091509150505481565b600060011515600460003373ffffffffffffffffffffffffffffffffffffffff1673ffffffffffffffffffffffffffffffffffffffff16815260200190815260200160002060009054906101000a900460ff16151514610607576040517f08c379a00000000000000000000000000000000000000000000000000000000081526004016105fe9061142b565b60405180910390fd5b60006106138484610507565b9050600960009054906101000a900473ffffffffffffffffffffffffffffffffffffffff1673ffffffffffffffffffffffffffffffffffffffff166340c10f1933836040518363ffffffff1660e01b8152600401610672929190611355565b600060405180830381600087803b15801561068c57600080fd5b505af11580156106a0573d6000803e3d6000fd5b505050503373ffffffffffffffffffffffffffffffffffffffff167fbcd3911ec0701f7d54f70486dd4db6fc7cd3094bcc04eb26bb17a4163310905860405160405180910390a2600191505092915050565b60076020528060005260406000206000915090505481565b60046020528060005260406000206000915054906101000a900460ff1681565b60026020528060005260406000206000915090505481565b60008054906101000a900473ffffffffffffffffffffffffffffffffffffffff1681565b600080600160003373ffffffffffffffffffffffffffffffffffffffff1673ffffffffffffffffffffffffffffffffffffffff1681526020019081526020016000208360ff16605181106107bd576107bc611699565b5b602091828204019190069054906101000a900460ff16905060008160ff1614156107eb576000915050610814565b600360008260ff1681526020019081526020016000206001015461080f8483610f98565b149150505b919050565b600060011515600460003373ffffffffffffffffffffffffffffffffffffffff1673ffffffffffffffffffffffffffffffffffffffff16815260200190815260200160002060009054906101000a900460ff161515146108ae576040517f08c379a00000000000000000000000000000000000000000000000000000000081526004016108a59061142b565b60405180910390fd5b6000600160003373ffffffffffffffffffffffffffffffffffffffff1673ffffffffffffffffffffffffffffffffffffffff1681526020019081526020016000208360ff166051811061090457610903611699565b5b602091828204019190069054906101000a900460ff16905060008160ff161415610932576000915050610a73565b61093c8382610572565b50600860009054906101000a900473ffffffffffffffffffffffffffffffffffffffff1673ffffffffffffffffffffffffffffffffffffffff1663a9059cbb33600360008560ff168152602001908152602001600020600001546040518363ffffffff1660e01b81526004016109b3929190611355565b602060405180830381600087803b1580156109cd57600080fd5b505af11580156109e1573d6000803e3d6000fd5b505050506040513d601f19601f82011682018060405250810190610a059190611132565b503373ffffffffffffffffffffffffffffffffffffffff167f85082129d87b2fe11527cb1b3b7a520aeb5aa6913f88a3d8757fe40d1db02fdd600360008460ff16815260200190815260200160002060000154604051610a65919061144b565b60405180910390a260019150505b919050565b60056020528060005260406000206000915090505481565b60016020528160005260406000208160518110610aac57600080fd5b60209182820401919006915091509054906101000a900460ff1681565b60036020528060005260406000206000915090508060000154908060010154908060020154905083565b610afb61104e565b600160003373ffffffffffffffffffffffffffffffffffffffff1673ffffffffffffffffffffffffffffffffffffffff168152602001908152602001600020605180602002604051908101604052809291908260518015610b97576020028201916000905b82829054906101000a900460ff1660ff1681526020019060010190602082600001049283019260010382029150808411610b605790505b5050505050905090565b600860009054906101000a900473ffffffffffffffffffffffffffffffffffffffff1681565b6000600560003373ffffffffffffffffffffffffffffffffffffffff1673ffffffffffffffffffffffffffffffffffffffff16815260200190815260200160002054905090565b600081600360008260ff168152602001908152602001600020600001543414610c6c576040517f08c379a0000000000000000000000000000000000000000000000000000000008152600401610c639061140b565b60405180910390fd5b83838060ff16600160003373ffffffffffffffffffffffffffffffffffffffff1673ffffffffffffffffffffffffffffffffffffffff1681526020019081526020016000208360ff1660518110610cc657610cc5611699565b5b602091828204019190069054906101000a900460ff1660ff161415610d20576040517f08c379a0000000000000000000000000000000000000000000000000000000008152600401610d17906113eb565b60405180910390fd5b60001515600460003373ffffffffffffffffffffffffffffffffffffffff1673ffffffffffffffffffffffffffffffffffffffff16815260200190815260200160002060009054906101000a900460ff1615151415610dd2576001600460003373ffffffffffffffffffffffffffffffffffffffff1673ffffffffffffffffffffffffffffffffffffffff16815260200190815260200160002060006101000a81548160ff0219169083151502179055505b84600160003373ffffffffffffffffffffffffffffffffffffffff1673ffffffffffffffffffffffffffffffffffffffff1681526020019081526020016000208760ff1660518110610e2757610e26611699565b5b602091828204019190066101000a81548160ff021916908360ff160217905550600260003373ffffffffffffffffffffffffffffffffffffffff1673ffffffffffffffffffffffffffffffffffffffff1681526020019081526020016000206000815480929190610e9790611621565b919050555042600660003373ffffffffffffffffffffffffffffffffffffffff1673ffffffffffffffffffffffffffffffffffffffff1681526020019081526020016000208760ff1660518110610ef157610ef0611699565b5b01819055503373ffffffffffffffffffffffffffffffffffffffff167febedb8b3c678666e7f36970bc8f57abf6d8fa2e828c0da91ea5b75bf68ed101a34604051610f3c919061144b565b60405180910390a26001935050505092915050565b6000600260003373ffffffffffffffffffffffffffffffffffffffff1673ffffffffffffffffffffffffffffffffffffffff16815260200190815260200160002054905090565b6000804290506000600660003373ffffffffffffffffffffffffffffffffffffffff1673ffffffffffffffffffffffffffffffffffffffff1681526020019081526020016000208560ff1660518110610ff457610ff3611699565b5b0154826110019190611550565b9050600360008560ff1681526020019081526020016000206001015481116110295780611044565b600360008560ff168152602001908152602001600020600101545b9250505092915050565b60405180610a200160405280605190602082028036833780820191505090505090565b60008135905061108081611794565b92915050565b600081519050611095816117ab565b92915050565b6000813590506110aa816117c2565b92915050565b6000813590506110bf816117d9565b92915050565b6000602082840312156110db576110da6116c8565b5b60006110e984828501611071565b91505092915050565b60008060408385031215611109576111086116c8565b5b600061111785828601611071565b92505060206111288582860161109b565b9150509250929050565b600060208284031215611148576111476116c8565b5b600061115684828501611086565b91505092915050565b600060208284031215611175576111746116c8565b5b60006111838482850161109b565b91505092915050565b6000602082840312156111a2576111a16116c8565b5b60006111b0848285016110b0565b91505092915050565b600080604083850312156111d0576111cf6116c8565b5b60006111de858286016110b0565b92505060206111ef858286016110b0565b9150509250929050565b6000611205838361131c565b60208301905092915050565b61121a81611584565b82525050565b611229816114c2565b61123381846114da565b925061123e826114b8565b8060005b8381101561126f57815161125687826111f9565b9650611261836114cd565b925050600181019050611242565b505050505050565b61128081611596565b82525050565b61128f816115d9565b82525050565b61129e816115eb565b82525050565b60006112b16024836114e5565b91506112bc826116cd565b604082019050919050565b60006112d46018836114e5565b91506112df8261171c565b602082019050919050565b60006112f76026836114e5565b915061130282611745565b604082019050919050565b611316816115c2565b82525050565b611325816115cc565b82525050565b611334816115cc565b82525050565b600060208201905061134f6000830184611211565b92915050565b600060408201905061136a6000830185611211565b611377602083018461130d565b9392505050565b6000610a20820190506113946000830184611220565b92915050565b60006020820190506113af6000830184611277565b92915050565b60006020820190506113ca6000830184611286565b92915050565b60006020820190506113e56000830184611295565b92915050565b60006020820190508181036000830152611404816112a4565b9050919050565b60006020820190508181036000830152611424816112c7565b9050919050565b60006020820190508181036000830152611444816112ea565b9050919050565b6000602082019050611460600083018461130d565b92915050565b600060608201905061147b600083018661130d565b611488602083018561130d565b611495604083018461130d565b949350505050565b60006020820190506114b2600083018461132b565b92915050565b6000819050919050565b600060519050919050565b6000602082019050919050565b600081905092915050565b600082825260208201905092915050565b6000611501826115c2565b915061150c836115c2565b9250817fffffffffffffffffffffffffffffffffffffffffffffffffffffffffffffffff04831182151516156115455761154461166a565b5b828202905092915050565b600061155b826115c2565b9150611566836115c2565b9250828210156115795761157861166a565b5b828203905092915050565b600061158f826115a2565b9050919050565b60008115159050919050565b600073ffffffffffffffffffffffffffffffffffffffff82169050919050565b6000819050919050565b600060ff82169050919050565b60006115e4826115fd565b9050919050565b60006115f6826115fd565b9050919050565b60006116088261160f565b9050919050565b600061161a826115a2565b9050919050565b600061162c826115c2565b91507fffffffffffffffffffffffffffffffffffffffffffffffffffffffffffffffff82141561165f5761165e61166a565b5b600182019050919050565b7f4e487b7100000000000000000000000000000000000000000000000000000000600052601160045260246000fd5b7f4e487b7100000000000000000000000000000000000000000000000000000000600052603260045260246000fd5b600080fd5b7f596f75206861766520616c7265616479206275696c74207468697320616e642060008201527f6865726500000000000000000000000000000000000000000000000000000000602082015250565b7f446966666572656e742076616c75652061747461636865640000000000000000600082015250565b7f596f752063616e277420776974686472617720696620796f75206469646e277460008201527f207374616b650000000000000000000000000000000000000000000000000000602082015250565b61179d81611584565b81146117a857600080fd5b50565b6117b481611596565b81146117bf57600080fd5b50565b6117cb816115c2565b81146117d657600080fd5b50565b6117e2816115cc565b81146117ed57600080fd5b5056fea26469706673582212200a839aee1b53da7578dea38abd42bf1497095cc038bbf7ae1695121ac703dade64736f6c63430008070033",
  "immutableReferences": {},
  "source": "// SPDX-License-Identifier: GPL-3.0\r\n\r\npragma solidity ^0.8.7; \r\n\r\nimport \"./SeedToken.sol\"; \r\nimport \"./ISeedToken.sol\"; \r\nimport \"@openzeppelin/contracts/token/ERC20/ERC20.sol\";\r\n\r\n    /**\r\n     * @dev Contract for game handling.\r\n     * Places buildings on map, stakes $ONE tokens and \r\n     * mints rewards for farmers. Each player has 81 \r\n     * tiles where they can build. Each tile has a timestamp \r\n     * making each building independent farming unit.  \r\n     */\r\n\r\ncontract Builder { \r\n\r\n    address public owner; \r\n\r\n    mapping(address => uint8[81]) public map; \r\n    mapping(address => uint256) public housesCount;  \r\n    mapping(uint => Structure) public structures; \r\n\r\n    mapping(address => bool) public isStaking; \r\n    mapping(address => uint256) public staked;\r\n    mapping(address => uint256[81]) public stakedTime; \r\n    mapping(address => uint256) public pending; \r\n\r\n    ERC20 public ONE; \r\n    ISeedToken public SEED; \r\n    \r\n    /**\r\n     * @dev Saves data about structure's price and farming time. \r\n     */ \r\n    struct Structure {\r\n        uint256 price; \r\n        uint256 time;\r\n        uint256 rate; \r\n    } \r\n  \r\n\r\n    /** \r\n     * @dev Sets contract address for {ONE} and {SEED} tokens. \r\n     * \r\n     * {structures} is initialized with available structures. \r\n     */\r\n\r\n    constructor(\r\n        ERC20 _ONE, \r\n        ISeedToken _SEED\r\n    ) {\r\n        owner = msg.sender; \r\n\r\n        ONE = _ONE; \r\n        SEED = _SEED; \r\n\r\n        Structure storage house = structures[1]; \r\n        house.price = 0.1 ether; \r\n        house.time = 4 hours; \r\n        house.rate = 1 ether; \r\n    }\r\n\r\n    /**\r\n     * @dev Places a new structure on the map and sets up farming. \r\n     * \r\n     * Returns a boolean value indicating whether the operation succeeded.\r\n     *\r\n     * Emits a {Stake} event.\r\n     *\r\n     * Requirements:\r\n     *\r\n     * - value attached must be equal to `_sid' price. \r\n     * - `_sId` at `_pos` must be different from current value.\r\n     */\r\n\r\n    function placeStructure(uint8 _pos, uint8 _sId) external \r\n        priced(_sId) unique(_pos, _sId) payable returns (bool) {\r\n        \r\n        if(isStaking[msg.sender] == false) {\r\n            isStaking[msg.sender] = true;            \r\n        }\r\n\r\n        map[msg.sender][_pos] = _sId; \r\n        housesCount[msg.sender]++; \r\n\r\n        stakedTime[msg.sender][_pos] = block.timestamp; \r\n\r\n        emit Stake(msg.sender, msg.value);\r\n        return true; \r\n    }\r\n\r\n     /**\r\n     * @dev Removes a structure from the map, stops farming, returns\r\n     * staked tokens.  \r\n     * \r\n     * Returns a boolean value indicating whether the operation succeeded.\r\n     *\r\n     * Emits an {Unstake} event.\r\n     *\r\n     * Requirements:\r\n     *\r\n     * - sender must have tokens staked. \r\n     */\r\n\r\n    function removeStructure(uint8 _pos) external \r\n        staking returns (bool) {\r\n\r\n        uint8 currentStruct = map[msg.sender][_pos]; \r\n        if(currentStruct == 0) return false; \r\n\r\n        withdrawTileYield(_pos, currentStruct); \r\n        ONE.transfer(msg.sender, structures[currentStruct].price); \r\n\r\n        emit Unstake(msg.sender, structures[currentStruct].price); \r\n        return true; \r\n    }\r\n\r\n    /**\r\n     * @dev Withdraw yield of {Seed} from the structure. \r\n     * \r\n     * Returns a boolean value indicating whether the operation succeeded.\r\n     *\r\n     * Emits a {YieldWithdraw} event.\r\n     *\r\n     * Requirements:\r\n     *\r\n     * - sender must have tokens staked. \r\n     */\r\n\r\n    function withdrawTileYield(uint8 _pos, uint8 _sId) public \r\n        staking returns (bool) {\r\n        \r\n        uint256 reward = calculateReward(_pos, _sId);  \r\n        SEED.mint(msg.sender, reward); \r\n\r\n        emit YieldWithdraw(msg.sender); \r\n\r\n        return true; \r\n    }\r\n    \r\n    /**\r\n     * @dev Returns amount of yield from a structure. \r\n     */\r\n\r\n     function calculateReward(uint8 _pos, uint8 _sId) public view returns (uint256) {\r\n        uint256 farmingTime = calculateYieldTime(_pos, _sId); \r\n        uint256 reward = structures[_sId].rate * farmingTime;\r\n        return reward; \r\n    }\r\n\r\n    /**\r\n     * @dev Returns time while structure was accumulating tokens. \r\n     */\r\n\r\n    function calculateYieldTime(uint8 _pos, uint8 _sId) internal view returns (uint256) {\r\n        uint256 end = block.timestamp;\r\n        uint256 yieldTime = end - stakedTime[msg.sender][_pos]; \r\n        return (yieldTime > structures[_sId].time) ? structures[_sId].time : yieldTime; \r\n    } \r\n\r\n    /**\r\n     * @dev Returns player's gamemap. \r\n     */\r\n\r\n    function getMap() external view returns (uint8[81] memory) { \r\n        return map[msg.sender]; \r\n    }\r\n\r\n    /**\r\n     * @dev Returns amount of staked tokens. \r\n     */\r\n\r\n    function getStaked() external view returns (uint256) {\r\n        return staked[msg.sender]; \r\n    }\r\n\r\n    /**\r\n     * @dev Returns amount of built houses. \r\n     */\r\n\r\n    function getHouses() external view returns (uint256) {\r\n        return housesCount[msg.sender]; \r\n    }\r\n\r\n    /**\r\n     * @dev Returns indicator whether building finished accumulating\r\n     * tokens or not.  \r\n     */\r\n\r\n     function isReadyForWithdraw(uint8 _pos) external view returns (bool) {\r\n         uint8 currentStruct = map[msg.sender][_pos]; \r\n         if(currentStruct == 0) return false; \r\n         return (calculateYieldTime(_pos, currentStruct) \r\n            == structures[currentStruct].time); \r\n     }\r\n\r\n\r\n    modifier onlyOwner {\r\n        require(msg.sender == owner, \r\n        \"Can't call owner function\"); \r\n        _; \r\n    }\r\n \r\n    modifier priced(uint8 _sId) {\r\n        require(msg.value == structures[_sId].price, \r\n        \"Different value attached\");\r\n        _; \r\n    }\r\n\r\n    modifier unique(uint8 _pos, uint8 _sId) {\r\n        require(map[msg.sender][_pos] != _sId,\r\n        \"You have already built this and here\"); \r\n        _; \r\n    }\r\n\r\n    modifier staking() {\r\n        require(isStaking[msg.sender] == true, \r\n        \"You can't withdraw if you didn't stake\"); \r\n        _; \r\n    }\r\n\r\n\r\n    event Stake(address indexed from, uint256 amount); \r\n    event Unstake(address indexed from, uint256 amount); \r\n    event YieldWithdraw(address indexed from); \r\n}",
  "sourcePath": "C:/Github/SeedFarm/contracts/Builder.sol",
  "compiler": {
    "name": "solc",
    "version": "0.8.7+commit.e28d00a7.Emscripten.clang"
  },
  "schemaVersion": "3.3.4",
  "updatedAt": "2021-12-27T14:43:43.482Z",
  "devdoc": {
    "details": "Contract for game handling. Places buildings on map, stakes $ONE tokens and  mints rewards for farmers. Each player has 81  tiles where they can build. Each tile has a timestamp  making each building independent farming unit.  ",
    "kind": "dev",
    "methods": {
      "calculateReward(uint8,uint8)": {
        "details": "Returns amount of yield from a structure. "
      },
      "constructor": {
        "details": "Sets contract address for {ONE} and {SEED} tokens.   {structures} is initialized with available structures. "
      },
      "getHouses()": {
        "details": "Returns amount of built houses. "
      },
      "getMap()": {
        "details": "Returns player's gamemap. "
      },
      "getStaked()": {
        "details": "Returns amount of staked tokens. "
      },
      "isReadyForWithdraw(uint8)": {
        "details": "Returns indicator whether building finished accumulating tokens or not.  "
      },
      "placeStructure(uint8,uint8)": {
        "details": "Places a new structure on the map and sets up farming.   Returns a boolean value indicating whether the operation succeeded. Emits a {Stake} event. Requirements: - value attached must be equal to `_sid' price.  - `_sId` at `_pos` must be different from current value."
      },
      "removeStructure(uint8)": {
        "details": "Removes a structure from the map, stops farming, returns staked tokens.    Returns a boolean value indicating whether the operation succeeded. Emits an {Unstake} event. Requirements: - sender must have tokens staked. "
      },
      "withdrawTileYield(uint8,uint8)": {
        "details": "Withdraw yield of {Seed} from the structure.   Returns a boolean value indicating whether the operation succeeded. Emits a {YieldWithdraw} event. Requirements: - sender must have tokens staked. "
      }
    },
    "version": 1
  },
  "userdoc": {
    "kind": "user",
    "methods": {},
    "version": 1
  }
}