{
  "contractName": "Builder",
  "abi": [
    {
      "inputs": [
        {
          "internalType": "contract ISeedToken",
          "name": "_SEED",
          "type": "address"
        }
      ],
      "stateMutability": "nonpayable",
      "type": "constructor"
    },
    {
      "anonymous": false,
      "inputs": [
        {
          "indexed": true,
          "internalType": "address",
          "name": "from",
          "type": "address"
        },
        {
          "indexed": false,
          "internalType": "uint256",
          "name": "amount",
          "type": "uint256"
        }
      ],
      "name": "Stake",
      "type": "event"
    },
    {
      "anonymous": false,
      "inputs": [
        {
          "indexed": true,
          "internalType": "address",
          "name": "from",
          "type": "address"
        },
        {
          "indexed": false,
          "internalType": "uint256",
          "name": "amount",
          "type": "uint256"
        }
      ],
      "name": "Unstake",
      "type": "event"
    },
    {
      "anonymous": false,
      "inputs": [
        {
          "indexed": true,
          "internalType": "address",
          "name": "from",
          "type": "address"
        }
      ],
      "name": "YieldWithdraw",
      "type": "event"
    },
    {
      "inputs": [],
      "name": "ONE",
      "outputs": [
        {
          "internalType": "contract ERC20",
          "name": "",
          "type": "address"
        }
      ],
      "stateMutability": "view",
      "type": "function"
    },
    {
      "inputs": [],
      "name": "SEED",
      "outputs": [
        {
          "internalType": "contract ISeedToken",
          "name": "",
          "type": "address"
        }
      ],
      "stateMutability": "view",
      "type": "function"
    },
    {
      "inputs": [
        {
          "internalType": "address",
          "name": "",
          "type": "address"
        }
      ],
      "name": "housesCount",
      "outputs": [
        {
          "internalType": "uint256",
          "name": "",
          "type": "uint256"
        }
      ],
      "stateMutability": "view",
      "type": "function"
    },
    {
      "inputs": [
        {
          "internalType": "address",
          "name": "",
          "type": "address"
        }
      ],
      "name": "isStaking",
      "outputs": [
        {
          "internalType": "bool",
          "name": "",
          "type": "bool"
        }
      ],
      "stateMutability": "view",
      "type": "function"
    },
    {
      "inputs": [
        {
          "internalType": "address",
          "name": "",
          "type": "address"
        },
        {
          "internalType": "uint256",
          "name": "",
          "type": "uint256"
        }
      ],
      "name": "map",
      "outputs": [
        {
          "internalType": "uint8",
          "name": "",
          "type": "uint8"
        }
      ],
      "stateMutability": "view",
      "type": "function"
    },
    {
      "inputs": [],
      "name": "owner",
      "outputs": [
        {
          "internalType": "address",
          "name": "",
          "type": "address"
        }
      ],
      "stateMutability": "view",
      "type": "function"
    },
    {
      "inputs": [
        {
          "internalType": "address",
          "name": "",
          "type": "address"
        }
      ],
      "name": "staked",
      "outputs": [
        {
          "internalType": "uint256",
          "name": "",
          "type": "uint256"
        }
      ],
      "stateMutability": "view",
      "type": "function"
    },
    {
      "inputs": [
        {
          "internalType": "address",
          "name": "",
          "type": "address"
        },
        {
          "internalType": "uint256",
          "name": "",
          "type": "uint256"
        }
      ],
      "name": "stakedTime",
      "outputs": [
        {
          "internalType": "uint256",
          "name": "",
          "type": "uint256"
        }
      ],
      "stateMutability": "view",
      "type": "function"
    },
    {
      "inputs": [
        {
          "internalType": "uint256",
          "name": "",
          "type": "uint256"
        }
      ],
      "name": "structures",
      "outputs": [
        {
          "internalType": "uint256",
          "name": "price",
          "type": "uint256"
        },
        {
          "internalType": "uint256",
          "name": "time",
          "type": "uint256"
        },
        {
          "internalType": "uint256",
          "name": "rate",
          "type": "uint256"
        }
      ],
      "stateMutability": "view",
      "type": "function"
    },
    {
      "inputs": [
        {
          "internalType": "uint8",
          "name": "_pos",
          "type": "uint8"
        },
        {
          "internalType": "uint8",
          "name": "_sId",
          "type": "uint8"
        }
      ],
      "name": "placeStructure",
      "outputs": [
        {
          "internalType": "bool",
          "name": "",
          "type": "bool"
        }
      ],
      "stateMutability": "payable",
      "type": "function"
    },
    {
      "inputs": [
        {
          "internalType": "uint8",
          "name": "_pos",
          "type": "uint8"
        }
      ],
      "name": "removeStructure",
      "outputs": [
        {
          "internalType": "bool",
          "name": "",
          "type": "bool"
        }
      ],
      "stateMutability": "nonpayable",
      "type": "function"
    },
    {
      "inputs": [
        {
          "internalType": "uint8",
          "name": "_pos",
          "type": "uint8"
        },
        {
          "internalType": "uint8",
          "name": "_sId",
          "type": "uint8"
        }
      ],
      "name": "withdrawTileYield",
      "outputs": [
        {
          "internalType": "bool",
          "name": "",
          "type": "bool"
        }
      ],
      "stateMutability": "nonpayable",
      "type": "function"
    },
    {
      "inputs": [],
      "name": "getMap",
      "outputs": [
        {
          "internalType": "uint8[81]",
          "name": "",
          "type": "uint8[81]"
        }
      ],
      "stateMutability": "view",
      "type": "function"
    },
    {
      "inputs": [],
      "name": "getHouses",
      "outputs": [
        {
          "internalType": "uint256",
          "name": "",
          "type": "uint256"
        }
      ],
      "stateMutability": "view",
      "type": "function"
    },
    {
      "inputs": [
        {
          "internalType": "uint256",
          "name": "_sId",
          "type": "uint256"
        }
      ],
      "name": "getStructure",
      "outputs": [
        {
          "components": [
            {
              "internalType": "uint256",
              "name": "price",
              "type": "uint256"
            },
            {
              "internalType": "uint256",
              "name": "time",
              "type": "uint256"
            },
            {
              "internalType": "uint256",
              "name": "rate",
              "type": "uint256"
            }
          ],
          "internalType": "struct Builder.Structure",
          "name": "",
          "type": "tuple"
        }
      ],
      "stateMutability": "view",
      "type": "function"
    },
    {
      "inputs": [],
      "name": "getIsStaking",
      "outputs": [
        {
          "internalType": "bool",
          "name": "",
          "type": "bool"
        }
      ],
      "stateMutability": "view",
      "type": "function"
    },
    {
      "inputs": [],
      "name": "getStaked",
      "outputs": [
        {
          "internalType": "uint256",
          "name": "",
          "type": "uint256"
        }
      ],
      "stateMutability": "view",
      "type": "function"
    },
    {
      "inputs": [
        {
          "internalType": "uint8",
          "name": "_pos",
          "type": "uint8"
        }
      ],
      "name": "getStakedTime",
      "outputs": [
        {
          "internalType": "uint256",
          "name": "",
          "type": "uint256"
        }
      ],
      "stateMutability": "view",
      "type": "function"
    },
    {
      "inputs": [
        {
          "internalType": "uint8",
          "name": "_pos",
          "type": "uint8"
        }
      ],
      "name": "isReadyForWithdraw",
      "outputs": [
        {
          "internalType": "bool",
          "name": "",
          "type": "bool"
        }
      ],
      "stateMutability": "view",
      "type": "function"
    }
  ],
  "bytecode": "0x60806040523480156200001157600080fd5b5060405162001e9438038062001e9483398181016040528101906200003791906200011c565b336000806101000a81548173ffffffffffffffffffffffffffffffffffffffff021916908373ffffffffffffffffffffffffffffffffffffffff16021790555080600860006101000a81548173ffffffffffffffffffffffffffffffffffffffff021916908373ffffffffffffffffffffffffffffffffffffffff16021790555060006003600060018152602001908152602001600020905067016345785d8a000081600001819055506138408160010181905550670de0b6b3a764000081600201819055505050620001b5565b60008151905062000116816200019b565b92915050565b60006020828403121562000135576200013462000196565b5b6000620001458482850162000105565b91505092915050565b60006200015b8262000176565b9050919050565b60006200016f826200014e565b9050919050565b600073ffffffffffffffffffffffffffffffffffffffff82169050919050565b600080fd5b620001a68162000162565b8114620001b257600080fd5b50565b611ccf80620001c56000396000f3fe6080604052600436106101145760003560e01c8063975542a1116100a0578063ad3de14c11610064578063ad3de14c1461043b578063c2ee3a0814610466578063c59abf9f14610491578063c6313eb7146104bc578063fd5f33ec146104ec57610114565b8063975542a11461030857806398807d84146103455780639dfb94ba146103825780639e3cb488146103bf578063a8a26730146103fe57610114565b80636f49712b116100e75780636f49712b146101fb578063702376a71461023857806375c30a9f146102635780638da5cb5b146102a057806394148d4f146102cb57610114565b80630edc4737146101195780634aec48c9146101445780635013d729146101815780635574f577146101be575b600080fd5b34801561012557600080fd5b5061012e610517565b60405161013b9190611802565b60405180910390f35b34801561015057600080fd5b5061016b600480360381019061016691906114dd565b61053d565b60405161017891906118b8565b60405180910390f35b34801561018d57600080fd5b506101a860048036038101906101a3919061151d565b610565565b6040516101b5919061189d565b60405180910390f35b3480156101ca57600080fd5b506101e560048036038101906101e09190611577565b6105b0565b6040516101f291906117cc565b60405180910390f35b34801561020757600080fd5b50610222600480360381019061021d91906114b0565b6108be565b60405161022f91906117cc565b60405180910390f35b34801561024457600080fd5b5061024d6108de565b60405161025a91906117cc565b60405180910390f35b34801561026f57600080fd5b5061028a600480360381019061028591906114b0565b610932565b60405161029791906118b8565b60405180910390f35b3480156102ac57600080fd5b506102b561094a565b6040516102c2919061176c565b60405180910390f35b3480156102d757600080fd5b506102f260048036038101906102ed919061154a565b61096e565b6040516102ff91906117cc565b60405180910390f35b34801561031457600080fd5b5061032f600480360381019061032a919061154a565b610abf565b60405161033c91906117cc565b60405180910390f35b34801561035157600080fd5b5061036c600480360381019061036791906114b0565b610e51565b60405161037991906118b8565b60405180910390f35b34801561038e57600080fd5b506103a960048036038101906103a491906114dd565b610e69565b6040516103b6919061190a565b60405180910390f35b3480156103cb57600080fd5b506103e660048036038101906103e1919061151d565b610ea2565b6040516103f5939291906118d3565b60405180910390f35b34801561040a57600080fd5b506104256004803603810190610420919061154a565b610ecc565b60405161043291906118b8565b60405180910390f35b34801561044757600080fd5b50610450610f2b565b60405161045d91906117b0565b60405180910390f35b34801561047257600080fd5b5061047b610fd9565b60405161048891906117e7565b60405180910390f35b34801561049d57600080fd5b506104a6610fff565b6040516104b391906118b8565b60405180910390f35b6104d660048036038101906104d19190611577565b611046565b6040516104e391906117cc565b60405180910390f35b3480156104f857600080fd5b50610501611389565b60405161050e91906118b8565b60405180910390f35b600860009054906101000a900473ffffffffffffffffffffffffffffffffffffffff1681565b6006602052816000526040600020816051811061055957600080fd5b01600091509150505481565b61056d61142d565b6003600083815260200190815260200160002060405180606001604052908160008201548152602001600182015481526020016002820154815250509050919050565b600060011515600460003373ffffffffffffffffffffffffffffffffffffffff1673ffffffffffffffffffffffffffffffffffffffff16815260200190815260200160002060009054906101000a900460ff16151514610645576040517f08c379a000000000000000000000000000000000000000000000000000000000815260040161063c9061187d565b60405180910390fd5b6000600160003373ffffffffffffffffffffffffffffffffffffffff1673ffffffffffffffffffffffffffffffffffffffff1681526020019081526020016000208460ff166051811061069b5761069a611b30565b5b602091828204019190069054906101000a900460ff16905060008160ff1614156106fa576040517f08c379a00000000000000000000000000000000000000000000000000000000081526004016106f19061185d565b60405180910390fd5b6000610774600660003373ffffffffffffffffffffffffffffffffffffffff1673ffffffffffffffffffffffffffffffffffffffff1681526020019081526020016000208660ff166051811061075357610752611b30565b5b0154600360008760ff168152602001908152602001600020600101546113d0565b90506000600660003373ffffffffffffffffffffffffffffffffffffffff1673ffffffffffffffffffffffffffffffffffffffff1681526020019081526020016000208660ff16605181106107cc576107cb611b30565b5b018190555060006107dd82866113f9565b9050600860009054906101000a900473ffffffffffffffffffffffffffffffffffffffff1673ffffffffffffffffffffffffffffffffffffffff166340c10f1933836040518363ffffffff1660e01b815260040161083c929190611787565b600060405180830381600087803b15801561085657600080fd5b505af115801561086a573d6000803e3d6000fd5b505050503373ffffffffffffffffffffffffffffffffffffffff167fbcd3911ec0701f7d54f70486dd4db6fc7cd3094bcc04eb26bb17a4163310905860405160405180910390a26001935050505092915050565b60046020528060005260406000206000915054906101000a900460ff1681565b6000600460003373ffffffffffffffffffffffffffffffffffffffff1673ffffffffffffffffffffffffffffffffffffffff16815260200190815260200160002060009054906101000a900460ff16905090565b60026020528060005260406000206000915090505481565b60008054906101000a900473ffffffffffffffffffffffffffffffffffffffff1681565b600080600160003373ffffffffffffffffffffffffffffffffffffffff1673ffffffffffffffffffffffffffffffffffffffff1681526020019081526020016000208360ff16605181106109c5576109c4611b30565b5b602091828204019190069054906101000a900460ff16905060008160ff161415610a24576040517f08c379a0000000000000000000000000000000000000000000000000000000008152600401610a1b9061185d565b60405180910390fd5b600360008260ff16815260200190815260200160002060010154610ab6600660003373ffffffffffffffffffffffffffffffffffffffff1673ffffffffffffffffffffffffffffffffffffffff1681526020019081526020016000208560ff1660518110610a9557610a94611b30565b5b0154600360008560ff168152602001908152602001600020600101546113d0565b14915050919050565b600060011515600460003373ffffffffffffffffffffffffffffffffffffffff1673ffffffffffffffffffffffffffffffffffffffff16815260200190815260200160002060009054906101000a900460ff16151514610b54576040517f08c379a0000000000000000000000000000000000000000000000000000000008152600401610b4b9061187d565b60405180910390fd5b6000600160003373ffffffffffffffffffffffffffffffffffffffff1673ffffffffffffffffffffffffffffffffffffffff1681526020019081526020016000208360ff1660518110610baa57610ba9611b30565b5b602091828204019190069054906101000a900460ff16905060008160ff161415610c09576040517f08c379a0000000000000000000000000000000000000000000000000000000008152600401610c009061185d565b60405180910390fd5b610c1383826105b0565b503373ffffffffffffffffffffffffffffffffffffffff166108fc600360008460ff168152602001908152602001600020600001549081150290604051600060405180830381858888f19350505050158015610c73573d6000803e3d6000fd5b506000600160003373ffffffffffffffffffffffffffffffffffffffff1673ffffffffffffffffffffffffffffffffffffffff1681526020019081526020016000208460ff1660518110610cca57610cc9611b30565b5b602091828204019190066101000a81548160ff021916908360ff160217905550600260003373ffffffffffffffffffffffffffffffffffffffff1673ffffffffffffffffffffffffffffffffffffffff1681526020019081526020016000206000815480929190610d3a90611a8e565b91905055506000600260003373ffffffffffffffffffffffffffffffffffffffff1673ffffffffffffffffffffffffffffffffffffffff168152602001908152602001600020541415610de0576000600460003373ffffffffffffffffffffffffffffffffffffffff1673ffffffffffffffffffffffffffffffffffffffff16815260200190815260200160002060006101000a81548160ff0219169083151502179055505b3373ffffffffffffffffffffffffffffffffffffffff167f85082129d87b2fe11527cb1b3b7a520aeb5aa6913f88a3d8757fe40d1db02fdd600360008460ff16815260200190815260200160002060000154604051610e3f91906118b8565b60405180910390a26001915050919050565b60056020528060005260406000206000915090505481565b60016020528160005260406000208160518110610e8557600080fd5b60209182820401919006915091509054906101000a900460ff1681565b60036020528060005260406000206000915090508060000154908060010154908060020154905083565b6000600660003373ffffffffffffffffffffffffffffffffffffffff1673ffffffffffffffffffffffffffffffffffffffff1681526020019081526020016000208260ff1660518110610f2257610f21611b30565b5b01549050919050565b610f3361144e565b600160003373ffffffffffffffffffffffffffffffffffffffff1673ffffffffffffffffffffffffffffffffffffffff168152602001908152602001600020605180602002604051908101604052809291908260518015610fcf576020028201916000905b82829054906101000a900460ff1660ff1681526020019060010190602082600001049283019260010382029150808411610f985790505b5050505050905090565b600760009054906101000a900473ffffffffffffffffffffffffffffffffffffffff1681565b6000600560003373ffffffffffffffffffffffffffffffffffffffff1673ffffffffffffffffffffffffffffffffffffffff16815260200190815260200160002054905090565b600081600360008260ff1681526020019081526020016000206000015434146110a4576040517f08c379a000000000000000000000000000000000000000000000000000000000815260040161109b9061183d565b60405180910390fd5b83838060ff16600160003373ffffffffffffffffffffffffffffffffffffffff1673ffffffffffffffffffffffffffffffffffffffff1681526020019081526020016000208360ff16605181106110fe576110fd611b30565b5b602091828204019190069054906101000a900460ff1660ff161415611158576040517f08c379a000000000000000000000000000000000000000000000000000000000815260040161114f9061181d565b60405180910390fd5b60001515600460003373ffffffffffffffffffffffffffffffffffffffff1673ffffffffffffffffffffffffffffffffffffffff16815260200190815260200160002060009054906101000a900460ff161515141561120a576001600460003373ffffffffffffffffffffffffffffffffffffffff1673ffffffffffffffffffffffffffffffffffffffff16815260200190815260200160002060006101000a81548160ff0219169083151502179055505b84600160003373ffffffffffffffffffffffffffffffffffffffff1673ffffffffffffffffffffffffffffffffffffffff1681526020019081526020016000208760ff166051811061125f5761125e611b30565b5b602091828204019190066101000a81548160ff021916908360ff160217905550600260003373ffffffffffffffffffffffffffffffffffffffff1673ffffffffffffffffffffffffffffffffffffffff16815260200190815260200160002060008154809291906112cf90611ab8565b919050555042600660003373ffffffffffffffffffffffffffffffffffffffff1673ffffffffffffffffffffffffffffffffffffffff1681526020019081526020016000208760ff166051811061132957611328611b30565b5b01819055503373ffffffffffffffffffffffffffffffffffffffff167febedb8b3c678666e7f36970bc8f57abf6d8fa2e828c0da91ea5b75bf68ed101a3460405161137491906118b8565b60405180910390a26001935050505092915050565b6000600260003373ffffffffffffffffffffffffffffffffffffffff1673ffffffffffffffffffffffffffffffffffffffff16815260200190815260200160002054905090565b60008083426113df91906119bd565b90508281116113ee57806113f0565b825b91505092915050565b600080600360008460ff16815260200190815260200160002060020154846114219190611963565b90508091505092915050565b60405180606001604052806000815260200160008152602001600081525090565b60405180610a200160405280605190602082028036833780820191505090505090565b60008135905061148081611c54565b92915050565b60008135905061149581611c6b565b92915050565b6000813590506114aa81611c82565b92915050565b6000602082840312156114c6576114c5611b5f565b5b60006114d484828501611471565b91505092915050565b600080604083850312156114f4576114f3611b5f565b5b600061150285828601611471565b925050602061151385828601611486565b9150509250929050565b60006020828403121561153357611532611b5f565b5b600061154184828501611486565b91505092915050565b6000602082840312156115605761155f611b5f565b5b600061156e8482850161149b565b91505092915050565b6000806040838503121561158e5761158d611b5f565b5b600061159c8582860161149b565b92505060206115ad8582860161149b565b9150509250929050565b60006115c3838361174e565b60208301905092915050565b6115d8816119f1565b82525050565b6115e78161192f565b6115f18184611947565b92506115fc82611925565b8060005b8381101561162d57815161161487826115b7565b965061161f8361193a565b925050600181019050611600565b505050505050565b61163e81611a03565b82525050565b61164d81611a46565b82525050565b61165c81611a58565b82525050565b600061166f602483611952565b915061167a82611b64565b604082019050919050565b6000611692601883611952565b915061169d82611bb3565b602082019050919050565b60006116b5600a83611952565b91506116c082611bdc565b602082019050919050565b60006116d8602683611952565b91506116e382611c05565b604082019050919050565b6060820160008201516117046000850182611730565b5060208201516117176020850182611730565b50604082015161172a6040850182611730565b50505050565b61173981611a2f565b82525050565b61174881611a2f565b82525050565b61175781611a39565b82525050565b61176681611a39565b82525050565b600060208201905061178160008301846115cf565b92915050565b600060408201905061179c60008301856115cf565b6117a9602083018461173f565b9392505050565b6000610a20820190506117c660008301846115de565b92915050565b60006020820190506117e16000830184611635565b92915050565b60006020820190506117fc6000830184611644565b92915050565b60006020820190506118176000830184611653565b92915050565b6000602082019050818103600083015261183681611662565b9050919050565b6000602082019050818103600083015261185681611685565b9050919050565b60006020820190508181036000830152611876816116a8565b9050919050565b60006020820190508181036000830152611896816116cb565b9050919050565b60006060820190506118b260008301846116ee565b92915050565b60006020820190506118cd600083018461173f565b92915050565b60006060820190506118e8600083018661173f565b6118f5602083018561173f565b611902604083018461173f565b949350505050565b600060208201905061191f600083018461175d565b92915050565b6000819050919050565b600060519050919050565b6000602082019050919050565b600081905092915050565b600082825260208201905092915050565b600061196e82611a2f565b915061197983611a2f565b9250817fffffffffffffffffffffffffffffffffffffffffffffffffffffffffffffffff04831182151516156119b2576119b1611b01565b5b828202905092915050565b60006119c882611a2f565b91506119d383611a2f565b9250828210156119e6576119e5611b01565b5b828203905092915050565b60006119fc82611a0f565b9050919050565b60008115159050919050565b600073ffffffffffffffffffffffffffffffffffffffff82169050919050565b6000819050919050565b600060ff82169050919050565b6000611a5182611a6a565b9050919050565b6000611a6382611a6a565b9050919050565b6000611a7582611a7c565b9050919050565b6000611a8782611a0f565b9050919050565b6000611a9982611a2f565b91506000821415611aad57611aac611b01565b5b600182039050919050565b6000611ac382611a2f565b91507fffffffffffffffffffffffffffffffffffffffffffffffffffffffffffffffff821415611af657611af5611b01565b5b600182019050919050565b7f4e487b7100000000000000000000000000000000000000000000000000000000600052601160045260246000fd5b7f4e487b7100000000000000000000000000000000000000000000000000000000600052603260045260246000fd5b600080fd5b7f596f75206861766520616c7265616479206275696c74207468697320616e642060008201527f6865726500000000000000000000000000000000000000000000000000000000602082015250565b7f446966666572656e742076616c75652061747461636865640000000000000000600082015250565b7f456d7074792074696c6500000000000000000000000000000000000000000000600082015250565b7f596f752063616e277420776974686472617720696620796f75206469646e277460008201527f207374616b650000000000000000000000000000000000000000000000000000602082015250565b611c5d816119f1565b8114611c6857600080fd5b50565b611c7481611a2f565b8114611c7f57600080fd5b50565b611c8b81611a39565b8114611c9657600080fd5b5056fea26469706673582212203b3925b459c88db0e98b5a8a32f5b073769699461b14433315d22ec49d1d90bf64736f6c63430008070033",
  "immutableReferences": {},
  "source": "// SPDX-License-Identifier: GPL-3.0\r\n\r\npragma solidity ^0.8.7; \r\n\r\nimport \"./SeedToken.sol\"; \r\nimport \"./ISeedToken.sol\"; \r\nimport \"@openzeppelin/contracts/token/ERC20/ERC20.sol\";\r\n\r\n    /**\r\n     * @dev Contract for game handling.\r\n     * Places buildings on map, stakes $ONE tokens and \r\n     * mints rewards for farmers. Each player has 81 \r\n     * tiles where they can build. Each tile has a timestamp \r\n     * making each building independent farming unit.  \r\n     */\r\n\r\ncontract Builder { \r\n\r\n    address public owner; \r\n\r\n    mapping(address => uint8[81]) public map; \r\n    mapping(address => uint256) public housesCount;  \r\n    mapping(uint => Structure) public structures; \r\n\r\n    mapping(address => bool) public isStaking; \r\n    mapping(address => uint256) public staked;\r\n    mapping(address => uint256[81]) public stakedTime; \r\n\r\n    ERC20 public ONE; \r\n    ISeedToken public SEED; \r\n    \r\n    /**\r\n     * @dev Saves data about structure's price and farming time. \r\n     */ \r\n    struct Structure {\r\n        uint256 price; \r\n        uint256 time;\r\n        uint256 rate; \r\n    } \r\n  \r\n\r\n    /** \r\n     * @dev Sets contract address for {ONE} and {SEED} tokens. \r\n     * \r\n     * {structures} is initialized with available structures. \r\n     */\r\n\r\n    constructor(ISeedToken _SEED) {\r\n        owner = msg.sender; \r\n\r\n        SEED = _SEED; \r\n\r\n        Structure storage house = structures[1]; \r\n        house.price = 0.1 ether; \r\n        house.time = 4 hours; \r\n        house.rate = 1 ether; \r\n    }\r\n\r\n    /**\r\n     * @dev Places a new structure on the map and sets up farming. \r\n     * \r\n     * Returns a boolean value indicating whether the operation succeeded.\r\n     *\r\n     * Emits a {Stake} event.\r\n     *\r\n     * Requirements:\r\n     *\r\n     * - value attached must be equal to `_sid' price. \r\n     * - `_sId` at `_pos` must be different from current value.\r\n     */\r\n\r\n    function placeStructure(uint8 _pos, uint8 _sId) external \r\n        priced(_sId) unique(_pos, _sId) payable returns (bool) {\r\n        \r\n        if(isStaking[msg.sender] == false) {\r\n            isStaking[msg.sender] = true;            \r\n        }\r\n\r\n        map[msg.sender][_pos] = _sId; \r\n        housesCount[msg.sender]++; \r\n\r\n        stakedTime[msg.sender][_pos] = block.timestamp; \r\n\r\n        emit Stake(msg.sender, msg.value);\r\n        return true; \r\n    }\r\n\r\n     /**\r\n     * @dev Removes a structure from the map, stops farming, returns\r\n     * staked tokens.  \r\n     * \r\n     * Returns a boolean value indicating whether the operation succeeded.\r\n     *\r\n     * Emits an {Unstake} event.\r\n     *\r\n     * Requirements:\r\n     *\r\n     * - sender must have tokens staked. \r\n     */\r\n\r\n    function removeStructure(uint8 _pos) external \r\n        staking returns (bool) {\r\n\r\n        uint8 currentStruct = map[msg.sender][_pos]; \r\n        if(currentStruct == 0) revert(\"Empty tile\"); \r\n\r\n        withdrawTileYield(_pos, currentStruct); \r\n        payable(msg.sender).transfer(structures[currentStruct].price); \r\n\r\n        map[msg.sender][_pos] = 0; \r\n        housesCount[msg.sender]--; \r\n        if(housesCount[msg.sender] == 0) {\r\n            isStaking[msg.sender] = false;    \r\n        }\r\n\r\n        emit Unstake(msg.sender, structures[currentStruct].price); \r\n        return true; \r\n    }\r\n\r\n    /**\r\n     * @dev Withdraw yield of {Seed} from the structure. \r\n     * \r\n     * Returns a boolean value indicating whether the operation succeeded.\r\n     *\r\n     * Emits a {YieldWithdraw} event.\r\n     *\r\n     * Requirements:\r\n     *\r\n     * - sender must have tokens staked. \r\n     */\r\n\r\n    function withdrawTileYield(uint8 _pos, uint8 _sId) public \r\n        staking returns (bool) {\r\n\r\n        uint8 currentStruct = map[msg.sender][_pos]; \r\n        if(currentStruct == 0) revert(\"Empty tile\"); \r\n\r\n        uint256 timeStaked = calculateYieldTime(\r\n            stakedTime[msg.sender][_pos], \r\n            structures[_sId].time\r\n        ); \r\n        stakedTime[msg.sender][_pos] = 0; \r\n        \r\n        uint256 reward = calculateReward(\r\n            timeStaked, \r\n            _sId\r\n        );  \r\n        SEED.mint(msg.sender, reward); \r\n\r\n        emit YieldWithdraw(msg.sender); \r\n\r\n        return true; \r\n    }\r\n\r\n    /**\r\n     * @dev Returns time while structure was accumulating tokens. \r\n     */\r\n\r\n    function calculateYieldTime(uint256 start, uint256 bound) internal\r\n         view returns (uint256) {\r\n        uint256 yieldTime = block.timestamp - start; \r\n        return (yieldTime > bound) ? bound : yieldTime; \r\n    } \r\n    \r\n    /**\r\n     * @dev Returns amount of yield from a structure. \r\n     */\r\n\r\n    function calculateReward(uint256 _stkTime, uint8 _sId) internal \r\n    view returns (uint256) {\r\n        uint256 reward =  _stkTime * structures[_sId].rate;\r\n        return reward; \r\n    }\r\n\r\n    /**\r\n     * @dev Returns player's gamemap. \r\n     */\r\n\r\n    function getMap() external view returns (uint8[81] memory) { \r\n        return map[msg.sender]; \r\n    }\r\n\r\n     /**\r\n     * @dev Returns amount of built houses. \r\n     */\r\n\r\n    function getHouses() external view returns (uint256) {\r\n        return housesCount[msg.sender]; \r\n    }    \r\n\r\n    /**\r\n     * @dev Returns in-game structure.   \r\n     */\r\n\r\n    function getStructure(uint _sId) external view returns (Structure memory) {\r\n        return structures[_sId]; \r\n    }\r\n\r\n    /**\r\n     * @dev Returns isStaking mapping. \r\n     */\r\n\r\n    function getIsStaking() external view returns (bool) {\r\n        return isStaking[msg.sender]; \r\n    }\r\n\r\n    /**\r\n     * @dev Returns amount of staked tokens. \r\n     */\r\n\r\n    function getStaked() external view returns (uint256) {\r\n        return staked[msg.sender]; \r\n    }\r\n\r\n    /**\r\n     * @dev Returns time when structure was staked. \r\n     */\r\n\r\n    function getStakedTime(uint8 _pos) external view returns (uint256) {\r\n        return stakedTime[msg.sender][_pos]; \r\n    }  \r\n\r\n    /**\r\n     * @dev Returns boolean whether building finished accumulating\r\n     * tokens or not.  \r\n     */\r\n\r\n     function isReadyForWithdraw(uint8 _pos) external view returns (bool) {\r\n         uint8 currentStruct = map[msg.sender][_pos]; \r\n         if(currentStruct == 0) revert(\"Empty tile\");  \r\n\r\n         return (calculateYieldTime(\r\n            stakedTime[msg.sender][_pos], \r\n            structures[currentStruct].time\r\n            ) == structures[currentStruct].time); \r\n     }\r\n\r\n    /**\r\n     * @dev Requires sender to be owner.  \r\n     */\r\n\r\n    modifier onlyOwner {\r\n        require(msg.sender == owner, \r\n        \"Can't call owner function\"); \r\n        _; \r\n    }\r\n\r\n    /**\r\n     * @dev Requires price to be in price mapping. \r\n     */\r\n\r\n    modifier priced(uint8 _sId) {\r\n        require(msg.value == structures[_sId].price, \r\n        \"Different value attached\");\r\n        _; \r\n    }\r\n\r\n    /**\r\n     * @dev Requires price to be in price mapping. \r\n     */\r\n\r\n    modifier unique(uint8 _pos, uint8 _sId) {\r\n        require(map[msg.sender][_pos] != _sId,\r\n        \"You have already built this and here\"); \r\n        _; \r\n    }\r\n\r\n    /**\r\n     * @dev Requires price to be in price mapping. \r\n     */\r\n\r\n    modifier staking() {\r\n        require(isStaking[msg.sender] == true, \r\n        \"You can't withdraw if you didn't stake\"); \r\n        _; \r\n    }\r\n\r\n\r\n    event Stake(address indexed from, uint256 amount); \r\n    event Unstake(address indexed from, uint256 amount); \r\n    event YieldWithdraw(address indexed from); \r\n}",
  "sourcePath": "C:/Github/SeedFarm/contracts/Builder.sol",
  "compiler": {
    "name": "solc",
    "version": "0.8.7+commit.e28d00a7.Emscripten.clang"
  },
  "schemaVersion": "3.3.4",
  "updatedAt": "2021-12-29T20:38:24.353Z",
  "devdoc": {
    "details": "Contract for game handling. Places buildings on map, stakes $ONE tokens and  mints rewards for farmers. Each player has 81  tiles where they can build. Each tile has a timestamp  making each building independent farming unit.  ",
    "kind": "dev",
    "methods": {
      "constructor": {
        "details": "Sets contract address for {ONE} and {SEED} tokens.   {structures} is initialized with available structures. "
      },
      "getHouses()": {
        "details": "Returns amount of built houses. "
      },
      "getIsStaking()": {
        "details": "Returns isStaking mapping. "
      },
      "getMap()": {
        "details": "Returns player's gamemap. "
      },
      "getStaked()": {
        "details": "Returns amount of staked tokens. "
      },
      "getStakedTime(uint8)": {
        "details": "Returns time when structure was staked. "
      },
      "getStructure(uint256)": {
        "details": "Returns in-game structure.   "
      },
      "isReadyForWithdraw(uint8)": {
        "details": "Returns boolean whether building finished accumulating tokens or not.  "
      },
      "placeStructure(uint8,uint8)": {
        "details": "Places a new structure on the map and sets up farming.   Returns a boolean value indicating whether the operation succeeded. Emits a {Stake} event. Requirements: - value attached must be equal to `_sid' price.  - `_sId` at `_pos` must be different from current value."
      },
      "removeStructure(uint8)": {
        "details": "Removes a structure from the map, stops farming, returns staked tokens.    Returns a boolean value indicating whether the operation succeeded. Emits an {Unstake} event. Requirements: - sender must have tokens staked. "
      },
      "withdrawTileYield(uint8,uint8)": {
        "details": "Withdraw yield of {Seed} from the structure.   Returns a boolean value indicating whether the operation succeeded. Emits a {YieldWithdraw} event. Requirements: - sender must have tokens staked. "
      }
    },
    "version": 1
  },
  "userdoc": {
    "kind": "user",
    "methods": {},
    "version": 1
  }
}