{
  "contractName": "MapArray",
  "abi": [
    {
      "inputs": [
        {
          "internalType": "address",
          "name": "",
          "type": "address"
        },
        {
          "internalType": "uint256",
          "name": "",
          "type": "uint256"
        }
      ],
      "name": "maps",
      "outputs": [
        {
          "internalType": "uint8",
          "name": "",
          "type": "uint8"
        }
      ],
      "stateMutability": "view",
      "type": "function",
      "constant": true
    },
    {
      "inputs": [],
      "name": "addPlayer",
      "outputs": [
        {
          "internalType": "bool",
          "name": "",
          "type": "bool"
        }
      ],
      "stateMutability": "nonpayable",
      "type": "function"
    },
    {
      "inputs": [],
      "name": "getMap",
      "outputs": [
        {
          "internalType": "uint8[81]",
          "name": "",
          "type": "uint8[81]"
        }
      ],
      "stateMutability": "view",
      "type": "function",
      "constant": true
    },
    {
      "inputs": [
        {
          "internalType": "uint8",
          "name": "pos",
          "type": "uint8"
        },
        {
          "internalType": "uint8",
          "name": "value",
          "type": "uint8"
        }
      ],
      "name": "setPosition",
      "outputs": [
        {
          "internalType": "bool",
          "name": "",
          "type": "bool"
        }
      ],
      "stateMutability": "nonpayable",
      "type": "function"
    }
  ],
  "bytecode": "0x608060405234801561001057600080fd5b5061066b806100206000396000f3fe608060405234801561001057600080fd5b506004361061004c5760003560e01c806327b5db8a14610051578063ad3de14c1461006f578063bd7669cc1461008d578063f1e714ee146100bd575b600080fd5b6100596100ed565b6040516100669190610504565b60405180910390f35b61007761014d565b60405161008491906104e8565b60405180910390f35b6100a760048036038101906100a2919061040c565b6101fa565b6040516100b49190610504565b60405180910390f35b6100d760048036038101906100d291906103cc565b61027a565b6040516100e4919061051f565b60405180910390f35b60006100f76102b3565b806000803373ffffffffffffffffffffffffffffffffffffffff1673ffffffffffffffffffffffffffffffffffffffff1681526020019081526020016000209060516101449291906102d6565b50600191505090565b6101556102b3565b6000803373ffffffffffffffffffffffffffffffffffffffff1673ffffffffffffffffffffffffffffffffffffffff1681526020019081526020016000206051806020026040519081016040528092919082605180156101f0576020028201916000905b82829054906101000a900460ff1660ff16815260200190600101906020826000010492830192600103820291508084116101b95790505b5050505050905090565b6000816000803373ffffffffffffffffffffffffffffffffffffffff1673ffffffffffffffffffffffffffffffffffffffff1681526020019081526020016000208460ff16605181106102505761024f6105bc565b5b602091828204019190066101000a81548160ff021916908360ff1602179055506001905092915050565b6000602052816000526040600020816051811061029657600080fd5b60209182820401919006915091509054906101000a900460ff1681565b60405180610a200160405280605190602082028036833780820191505090505090565b826051601f0160209004810192821561035f5791602002820160005b8382111561033057835183826101000a81548160ff021916908360ff16021790555092602001926001016020816000010492830192600103026102f2565b801561035d5782816101000a81549060ff0219169055600101602081600001049283019260010302610330565b505b50905061036c9190610370565b5090565b5b80821115610389576000816000905550600101610371565b5090565b60008135905061039c816105f0565b92915050565b6000813590506103b181610607565b92915050565b6000813590506103c68161061e565b92915050565b600080604083850312156103e3576103e26105eb565b5b60006103f18582860161038d565b9250506020610402858286016103a2565b9150509250929050565b60008060408385031215610423576104226105eb565b5b6000610431858286016103b7565b9250506020610442858286016103b7565b9150509250929050565b600061045883836104ca565b60208301905092915050565b61046d81610544565b610477818461055c565b92506104828261053a565b8060005b838110156104b357815161049a878261044c565b96506104a58361054f565b925050600181019050610486565b505050505050565b6104c481610579565b82525050565b6104d3816105af565b82525050565b6104e2816105af565b82525050565b6000610a20820190506104fe6000830184610464565b92915050565b600060208201905061051960008301846104bb565b92915050565b600060208201905061053460008301846104d9565b92915050565b6000819050919050565b600060519050919050565b6000602082019050919050565b600081905092915050565b600061057282610585565b9050919050565b60008115159050919050565b600073ffffffffffffffffffffffffffffffffffffffff82169050919050565b6000819050919050565b600060ff82169050919050565b7f4e487b7100000000000000000000000000000000000000000000000000000000600052603260045260246000fd5b600080fd5b6105f981610567565b811461060457600080fd5b50565b610610816105a5565b811461061b57600080fd5b50565b610627816105af565b811461063257600080fd5b5056fea2646970667358221220314563858026fa894273e88bc57146a88e5e3c6ae154a22a261c2e5dcc613cc864736f6c63430008070033",
  "immutableReferences": {},
  "source": "// SPDX-License-Identifier: GPL-3.0\r\n\r\npragma solidity ^0.8.7; \r\n\r\ncontract MapArray { \r\n\r\n    mapping(address => uint8[81]) public maps; \r\n\r\n    function addPlayer() external returns (bool) { \r\n        uint8[81] memory newMap; \r\n        maps[msg.sender] = newMap;  \r\n        return true; \r\n    }\r\n\r\n    function getMap() external view returns (uint8[81] memory) { \r\n        return maps[msg.sender]; \r\n    }\r\n\r\n    function setPosition(uint8 pos, uint8 value) external returns (bool) {\r\n        maps[msg.sender][pos] = value; \r\n        return true; \r\n    }\r\n}",
  "sourcePath": "C:/Github/SeedFarm/contracts/MapArray.sol",
  "compiler": {
    "name": "solc",
    "version": "0.8.7+commit.e28d00a7.Emscripten.clang"
  },
  "schemaVersion": "3.3.4",
  "updatedAt": "2021-12-07T18:56:58.848Z",
  "networkType": "ethereum",
  "devdoc": {
    "kind": "dev",
    "methods": {},
    "version": 1
  },
  "userdoc": {
    "kind": "user",
    "methods": {},
    "version": 1
  }
}