{
  "contractName": "SFarm",
  "abi": [
    {
      "inputs": [
        {
          "internalType": "contract IERC20",
          "name": "_mainToken",
          "type": "address"
        },
        {
          "internalType": "contract SToken",
          "name": "_stoke",
          "type": "address"
        }
      ],
      "stateMutability": "nonpayable",
      "type": "constructor"
    },
    {
      "anonymous": false,
      "inputs": [
        {
          "indexed": true,
          "internalType": "address",
          "name": "from",
          "type": "address"
        },
        {
          "indexed": false,
          "internalType": "uint256",
          "name": "amount",
          "type": "uint256"
        }
      ],
      "name": "Stake",
      "type": "event"
    },
    {
      "anonymous": false,
      "inputs": [
        {
          "indexed": true,
          "internalType": "address",
          "name": "from",
          "type": "address"
        },
        {
          "indexed": false,
          "internalType": "uint256",
          "name": "amount",
          "type": "uint256"
        }
      ],
      "name": "Unstake",
      "type": "event"
    },
    {
      "anonymous": false,
      "inputs": [
        {
          "indexed": true,
          "internalType": "address",
          "name": "from",
          "type": "address"
        },
        {
          "indexed": false,
          "internalType": "uint256",
          "name": "amount",
          "type": "uint256"
        }
      ],
      "name": "YieldCompound",
      "type": "event"
    },
    {
      "anonymous": false,
      "inputs": [
        {
          "indexed": true,
          "internalType": "address",
          "name": "to",
          "type": "address"
        },
        {
          "indexed": false,
          "internalType": "uint256",
          "name": "amount",
          "type": "uint256"
        }
      ],
      "name": "YieldWithdraw",
      "type": "event"
    },
    {
      "inputs": [
        {
          "internalType": "address",
          "name": "",
          "type": "address"
        }
      ],
      "name": "isStaking",
      "outputs": [
        {
          "internalType": "bool",
          "name": "",
          "type": "bool"
        }
      ],
      "stateMutability": "view",
      "type": "function"
    },
    {
      "inputs": [
        {
          "internalType": "address",
          "name": "",
          "type": "address"
        }
      ],
      "name": "mainBalance",
      "outputs": [
        {
          "internalType": "uint256",
          "name": "",
          "type": "uint256"
        }
      ],
      "stateMutability": "view",
      "type": "function"
    },
    {
      "inputs": [],
      "name": "mainToken",
      "outputs": [
        {
          "internalType": "contract IERC20",
          "name": "",
          "type": "address"
        }
      ],
      "stateMutability": "view",
      "type": "function"
    },
    {
      "inputs": [
        {
          "internalType": "address",
          "name": "",
          "type": "address"
        },
        {
          "internalType": "uint256",
          "name": "",
          "type": "uint256"
        },
        {
          "internalType": "uint256",
          "name": "",
          "type": "uint256"
        }
      ],
      "name": "maps",
      "outputs": [
        {
          "internalType": "uint256",
          "name": "",
          "type": "uint256"
        }
      ],
      "stateMutability": "view",
      "type": "function"
    },
    {
      "inputs": [
        {
          "internalType": "address",
          "name": "",
          "type": "address"
        }
      ],
      "name": "startTime",
      "outputs": [
        {
          "internalType": "uint256",
          "name": "",
          "type": "uint256"
        }
      ],
      "stateMutability": "view",
      "type": "function"
    },
    {
      "inputs": [],
      "name": "stoke",
      "outputs": [
        {
          "internalType": "contract SToken",
          "name": "",
          "type": "address"
        }
      ],
      "stateMutability": "view",
      "type": "function"
    },
    {
      "inputs": [
        {
          "internalType": "address",
          "name": "",
          "type": "address"
        }
      ],
      "name": "stokeBalance",
      "outputs": [
        {
          "internalType": "uint256",
          "name": "",
          "type": "uint256"
        }
      ],
      "stateMutability": "view",
      "type": "function"
    },
    {
      "inputs": [
        {
          "internalType": "uint256",
          "name": "amount",
          "type": "uint256"
        }
      ],
      "name": "stake",
      "outputs": [
        {
          "internalType": "bool",
          "name": "",
          "type": "bool"
        }
      ],
      "stateMutability": "nonpayable",
      "type": "function"
    },
    {
      "inputs": [
        {
          "internalType": "uint256",
          "name": "amount",
          "type": "uint256"
        }
      ],
      "name": "unstake",
      "outputs": [
        {
          "internalType": "bool",
          "name": "",
          "type": "bool"
        }
      ],
      "stateMutability": "nonpayable",
      "type": "function"
    },
    {
      "inputs": [],
      "name": "withdrawYield",
      "outputs": [
        {
          "internalType": "bool",
          "name": "",
          "type": "bool"
        }
      ],
      "stateMutability": "nonpayable",
      "type": "function"
    }
  ],
  "bytecode": "0x60806040523480156200001157600080fd5b506040516200173f3803806200173f8339818101604052810190620000379190620000ef565b81600560006101000a81548173ffffffffffffffffffffffffffffffffffffffff021916908373ffffffffffffffffffffffffffffffffffffffff16021790555080600660006101000a81548173ffffffffffffffffffffffffffffffffffffffff021916908373ffffffffffffffffffffffffffffffffffffffff1602179055505050620001cb565b600081519050620000d28162000197565b92915050565b600081519050620000e981620001b1565b92915050565b6000806040838503121562000109576200010862000192565b5b60006200011985828601620000c1565b92505060206200012c85828601620000d8565b9150509250929050565b6000620001438262000172565b9050919050565b6000620001578262000136565b9050919050565b60006200016b8262000136565b9050919050565b600073ffffffffffffffffffffffffffffffffffffffff82169050919050565b600080fd5b620001a2816200014a565b8114620001ae57600080fd5b50565b620001bc816200015e565b8114620001c857600080fd5b50565b61156480620001db6000396000f3fe608060405234801561001057600080fd5b506004361061009e5760003560e01c80638839a165116100665780638839a1651461016f578063a694fc3a1461019f578063d2fb26c5146101cf578063e507a8a4146101ff578063efdfae231461021d5761009e565b806305a012c0146100a35780632e17de78146100c15780633fc15f15146100f15780636e1dc66e1461010f5780636f49712b1461013f575b600080fd5b6100ab61024d565b6040516100b89190611150565b60405180910390f35b6100db60048036038101906100d69190610f6e565b610273565b6040516100e8919061111a565b60405180910390f35b6100f9610564565b6040516101069190611135565b60405180910390f35b61012960048036038101906101249190610ec1565b61058a565b60405161013691906111eb565b60405180910390f35b61015960048036038101906101549190610ec1565b6105a2565b604051610166919061111a565b60405180910390f35b61018960048036038101906101849190610ec1565b6105c2565b60405161019691906111eb565b60405180910390f35b6101b960048036038101906101b49190610f6e565b6105da565b6040516101c6919061111a565b60405180910390f35b6101e960048036038101906101e49190610ec1565b610968565b6040516101f691906111eb565b60405180910390f35b610207610980565b604051610214919061111a565b60405180910390f35b61023760048036038101906102329190610eee565b610b95565b60405161024491906111eb565b60405180910390f35b600660009054906101000a900473ffffffffffffffffffffffffffffffffffffffff1681565b6000600180156102c15750816000803373ffffffffffffffffffffffffffffffffffffffff1673ffffffffffffffffffffffffffffffffffffffff1681526020019081526020016000205410155b600260003373ffffffffffffffffffffffffffffffffffffffff1673ffffffffffffffffffffffffffffffffffffffff16815260200190815260200160002060006101000a81548160ff0219169083151502179055610355576040517f08c379a000000000000000000000000000000000000000000000000000000000815260040161034c906111cb565b60405180910390fd5b600082905060009250806000803373ffffffffffffffffffffffffffffffffffffffff1673ffffffffffffffffffffffffffffffffffffffff16815260200190815260200160002060008282546103ac91906112f8565b92505081905550600560009054906101000a900473ffffffffffffffffffffffffffffffffffffffff1673ffffffffffffffffffffffffffffffffffffffff1663a9059cbb33836040518363ffffffff1660e01b81526004016104109291906110f1565b602060405180830381600087803b15801561042a57600080fd5b505af115801561043e573d6000803e3d6000fd5b505050506040513d601f19601f820116820180604052508101906104629190610f41565b5061046b610bd0565b5060008060003373ffffffffffffffffffffffffffffffffffffffff1673ffffffffffffffffffffffffffffffffffffffff16815260200190815260200160002054141561050c576000600260003373ffffffffffffffffffffffffffffffffffffffff1673ffffffffffffffffffffffffffffffffffffffff16815260200190815260200160002060006101000a81548160ff0219169083151502179055505b3373ffffffffffffffffffffffffffffffffffffffff167f85082129d87b2fe11527cb1b3b7a520aeb5aa6913f88a3d8757fe40d1db02fdd8260405161055291906111eb565b60405180910390a26001915050919050565b600560009054906101000a900473ffffffffffffffffffffffffffffffffffffffff1681565b60036020528060005260406000206000915090505481565b60026020528060005260406000206000915054906101000a900460ff1681565b60006020528060005260406000206000915090505481565b600080821161061e576040517f08c379a00000000000000000000000000000000000000000000000000000000081526004016106159061118b565b60405180910390fd5b81600560009054906101000a900473ffffffffffffffffffffffffffffffffffffffff1673ffffffffffffffffffffffffffffffffffffffff166370a08231336040518263ffffffff1660e01b815260040161067a919061109f565b60206040518083038186803b15801561069257600080fd5b505afa1580156106a6573d6000803e3d6000fd5b505050506040513d601f19601f820116820180604052508101906106ca9190610f9b565b101561070b576040517f08c379a0000000000000000000000000000000000000000000000000000000008152600401610702906111ab565b60405180910390fd5b60011515600260003373ffffffffffffffffffffffffffffffffffffffff1673ffffffffffffffffffffffffffffffffffffffff16815260200190815260200160002060009054906101000a900460ff161515141561076e5761076c610bd0565b505b600560009054906101000a900473ffffffffffffffffffffffffffffffffffffffff1673ffffffffffffffffffffffffffffffffffffffff166323b872dd3330856040518463ffffffff1660e01b81526004016107cd939291906110ba565b602060405180830381600087803b1580156107e757600080fd5b505af11580156107fb573d6000803e3d6000fd5b505050506040513d601f19601f8201168201806040525081019061081f9190610f41565b50816000803373ffffffffffffffffffffffffffffffffffffffff1673ffffffffffffffffffffffffffffffffffffffff168152602001908152602001600020600082825461086e9190611217565b925050819055506001600260003373ffffffffffffffffffffffffffffffffffffffff1673ffffffffffffffffffffffffffffffffffffffff16815260200190815260200160002060006101000a81548160ff02191690831515021790555042600360003373ffffffffffffffffffffffffffffffffffffffff1673ffffffffffffffffffffffffffffffffffffffff168152602001908152602001600020819055503373ffffffffffffffffffffffffffffffffffffffff167febedb8b3c678666e7f36970bc8f57abf6d8fa2e828c0da91ea5b75bf68ed101a8360405161095791906111eb565b60405180910390a260019050919050565b60016020528060005260406000206000915090505481565b60008061098c33610d68565b905060008111806109dc57506000600160003373ffffffffffffffffffffffffffffffffffffffff1673ffffffffffffffffffffffffffffffffffffffff16815260200190815260200160002054115b610a1b576040517f08c379a0000000000000000000000000000000000000000000000000000000008152600401610a129061116b565b60405180910390fd5b6000600160003373ffffffffffffffffffffffffffffffffffffffff1673ffffffffffffffffffffffffffffffffffffffff1681526020019081526020016000205414610afb576000600160003373ffffffffffffffffffffffffffffffffffffffff1673ffffffffffffffffffffffffffffffffffffffff1681526020019081526020016000205490506000600160003373ffffffffffffffffffffffffffffffffffffffff1673ffffffffffffffffffffffffffffffffffffffff168152602001908152602001600020819055508082610af79190611217565b9150505b42600360003373ffffffffffffffffffffffffffffffffffffffff1673ffffffffffffffffffffffffffffffffffffffff168152602001908152602001600020819055503373ffffffffffffffffffffffffffffffffffffffff167f92044e3943309ee5950e21bc7421d02c1df75f0df33c0d97c1143687b49a4c5782604051610b8591906111eb565b60405180910390a2600191505090565b60046020528260005260406000208260098110610bb157600080fd5b600902018160098110610bc357600080fd5b0160009250925050505481565b600060011515600260003373ffffffffffffffffffffffffffffffffffffffff1673ffffffffffffffffffffffffffffffffffffffff16815260200190815260200160002060009054906101000a900460ff1615151415610d61576000610c3633610d68565b905080600160003373ffffffffffffffffffffffffffffffffffffffff1673ffffffffffffffffffffffffffffffffffffffff1681526020019081526020016000206000828254610c879190611217565b9250508190555042600360003373ffffffffffffffffffffffffffffffffffffffff1673ffffffffffffffffffffffffffffffffffffffff168152602001908152602001600020819055503373ffffffffffffffffffffffffffffffffffffffff167f874d38d5d22f7636caaad285afa7e61cd1468965fba74f57937f35ebe1ec11e4600160003373ffffffffffffffffffffffffffffffffffffffff1673ffffffffffffffffffffffffffffffffffffffff16815260200190815260200160002054604051610d5791906111eb565b60405180910390a2505b6001905090565b600080670de0b6b3a7640000610d7d84610e0e565b610d87919061129e565b9050600062015180905060008183610d9f919061126d565b90506000670de0b6b3a7640000826000808973ffffffffffffffffffffffffffffffffffffffff1673ffffffffffffffffffffffffffffffffffffffff16815260200190815260200160002054610df6919061129e565b610e00919061126d565b905080945050505050919050565b6000804290506000600360008573ffffffffffffffffffffffffffffffffffffffff1673ffffffffffffffffffffffffffffffffffffffff1681526020019081526020016000205482610e6191906112f8565b90508092505050919050565b600081359050610e7c816114e9565b92915050565b600081519050610e9181611500565b92915050565b600081359050610ea681611517565b92915050565b600081519050610ebb81611517565b92915050565b600060208284031215610ed757610ed661141a565b5b6000610ee584828501610e6d565b91505092915050565b600080600060608486031215610f0757610f0661141a565b5b6000610f1586828701610e6d565b9350506020610f2686828701610e97565b9250506040610f3786828701610e97565b9150509250925092565b600060208284031215610f5757610f5661141a565b5b6000610f6584828501610e82565b91505092915050565b600060208284031215610f8457610f8361141a565b5b6000610f9284828501610e97565b91505092915050565b600060208284031215610fb157610fb061141a565b5b6000610fbf84828501610eac565b91505092915050565b610fd18161132c565b82525050565b610fe08161133e565b82525050565b610fef81611374565b82525050565b610ffe81611386565b82525050565b6000611011601383611206565b915061101c8261141f565b602082019050919050565b6000611034601c83611206565b915061103f82611448565b602082019050919050565b6000611057602283611206565b915061106282611471565b604082019050919050565b600061107a601283611206565b9150611085826114c0565b602082019050919050565b6110998161136a565b82525050565b60006020820190506110b46000830184610fc8565b92915050565b60006060820190506110cf6000830186610fc8565b6110dc6020830185610fc8565b6110e96040830184611090565b949350505050565b60006040820190506111066000830185610fc8565b6111136020830184611090565b9392505050565b600060208201905061112f6000830184610fd7565b92915050565b600060208201905061114a6000830184610fe6565b92915050565b60006020820190506111656000830184610ff5565b92915050565b6000602082019050818103600083015261118481611004565b9050919050565b600060208201905081810360008301526111a481611027565b9050919050565b600060208201905081810360008301526111c48161104a565b9050919050565b600060208201905081810360008301526111e48161106d565b9050919050565b60006020820190506112006000830184611090565b92915050565b600082825260208201905092915050565b60006112228261136a565b915061122d8361136a565b9250827fffffffffffffffffffffffffffffffffffffffffffffffffffffffffffffffff03821115611262576112616113bc565b5b828201905092915050565b60006112788261136a565b91506112838361136a565b925082611293576112926113eb565b5b828204905092915050565b60006112a98261136a565b91506112b48361136a565b9250817fffffffffffffffffffffffffffffffffffffffffffffffffffffffffffffffff04831182151516156112ed576112ec6113bc565b5b828202905092915050565b60006113038261136a565b915061130e8361136a565b925082821015611321576113206113bc565b5b828203905092915050565b60006113378261134a565b9050919050565b60008115159050919050565b600073ffffffffffffffffffffffffffffffffffffffff82169050919050565b6000819050919050565b600061137f82611398565b9050919050565b600061139182611398565b9050919050565b60006113a3826113aa565b9050919050565b60006113b58261134a565b9050919050565b7f4e487b7100000000000000000000000000000000000000000000000000000000600052601160045260246000fd5b7f4e487b7100000000000000000000000000000000000000000000000000000000600052601260045260246000fd5b600080fd5b7f4e6f7468696e6720746f20776974686472617700000000000000000000000000600082015250565b7f596f752063616e6e6f74207374616b65207a65726f20746f6b656e7300000000600082015250565b7f596f752073686f756c6420686176652073756666696369656e742062616c616e60008201527f6365000000000000000000000000000000000000000000000000000000000000602082015250565b7f4e6f7468696e6720746f20756e7374616b650000000000000000000000000000600082015250565b6114f28161132c565b81146114fd57600080fd5b50565b6115098161133e565b811461151457600080fd5b50565b6115208161136a565b811461152b57600080fd5b5056fea264697066735822122045ea76b3a740ccdbd63ea07f1b6fd7c50e9471fe8c2a15ecd168b05ab815fdcd64736f6c63430008070033",
  "immutableReferences": {},
  "source": "// SPDX-License-Identifier: GPL-3.0\r\n\r\npragma solidity ^0.8.7; \r\n\r\n\r\nimport \"@openzeppelin/contracts/token/ERC20/IERC20.sol\";\r\n\r\nimport \"./SToken.sol\"; \r\n\r\n\r\ncontract SFarm {\r\n    \r\n    mapping(address => uint256) public mainBalance; \r\n    mapping(address => uint256) public stokeBalance; \r\n    mapping(address => bool) public isStaking; \r\n    mapping(address => uint256) public startTime; \r\n\r\n    mapping(address => uint256[9][9]) public maps;\r\n    \r\n    \r\n    event Stake(address indexed from, uint256 amount);\r\n    event Unstake(address indexed from, uint256 amount);\r\n    event YieldCompound(address indexed from, uint256 amount); \r\n    event YieldWithdraw(address indexed to, uint256 amount); \r\n    \r\n    \r\n    IERC20 public mainToken; \r\n    SToken public stoke; \r\n    \r\n    constructor(IERC20 _mainToken, SToken _stoke){\r\n        mainToken = _mainToken; \r\n        stoke = _stoke; \r\n    }\r\n    \r\n    function stake(uint256 amount) external returns (bool) {\r\n        require(amount > 0, \"You cannot stake zero tokens\"); \r\n        require(mainToken.balanceOf(msg.sender) >= amount, \"You should have sufficient balance\"); \r\n        \r\n        if(isStaking[msg.sender] == true) {\r\n            recompound();     \r\n        }\r\n        \r\n        mainToken.transferFrom(msg.sender, address(this), amount);\r\n        mainBalance[msg.sender] += amount;\r\n        isStaking[msg.sender] = true;\r\n        startTime[msg.sender] = block.timestamp; \r\n        \r\n        emit Stake(msg.sender, amount);\r\n        return true; \r\n        \r\n    }\r\n    \r\n    function unstake(uint256 amount) external returns (bool) {\r\n        require(isStaking[msg.sender] = true && mainBalance[msg.sender] >= amount, \"Nothing to unstake\");\r\n    \r\n        uint256 mainTransfer = amount;\r\n        amount = 0;\r\n        mainBalance[msg.sender] -= mainTransfer;\r\n        mainToken.transfer(msg.sender, mainTransfer);\r\n        \r\n        recompound(); \r\n        \r\n        if(mainBalance[msg.sender] == 0){\r\n            isStaking[msg.sender] = false;\r\n        }\r\n        \r\n        emit Unstake(msg.sender, mainTransfer);\r\n        return true; \r\n    }\r\n    \r\n    function recompound() internal returns (bool) {\r\n        if(isStaking[msg.sender] == true) {\r\n            uint256 toTransfer = calculateYieldTotal(msg.sender);\r\n            stokeBalance[msg.sender] += toTransfer;\r\n            startTime[msg.sender] = block.timestamp;\r\n            \r\n            emit YieldCompound(msg.sender, stokeBalance[msg.sender]); \r\n        }\r\n        return true;\r\n    }\r\n    \r\n    function withdrawYield() external returns (bool) {\r\n        uint256 toTransfer = calculateYieldTotal(msg.sender);\r\n\r\n        require(toTransfer > 0 || stokeBalance[msg.sender] > 0, \"Nothing to withdraw\");\r\n            \r\n        if(stokeBalance[msg.sender] != 0){\r\n            uint256 oldBalance = stokeBalance[msg.sender];\r\n            stokeBalance[msg.sender] = 0;\r\n            toTransfer += oldBalance;\r\n        }\r\n        \r\n        startTime[msg.sender] = block.timestamp;\r\n        //stoke.mint(msg.sender, toTransfer);\r\n        \r\n        emit YieldWithdraw(msg.sender, toTransfer);\r\n        return true; \r\n    } \r\n    \r\n    function calculateYieldTime(address user) internal view returns(uint256){\r\n        uint256 end = block.timestamp;\r\n        uint256 totalTime = end - startTime[user];\r\n        return totalTime;\r\n    }\r\n\r\n    function calculateYieldTotal(address user) internal view returns(uint256) {\r\n        uint256 time = calculateYieldTime(user) * 10**18;\r\n        //TODO: get rate generated in game\r\n        uint256 rate = 86400;\r\n        uint256 timeRate = time / rate;\r\n        //TODO: determine math \r\n        uint256 rawYield = (mainBalance[user] * timeRate) / 10**18;\r\n        return rawYield;\r\n    } \r\n    \r\n}",
  "sourcePath": "C:/Github/SeedFarm/contracts/SFarm.sol",
  "compiler": {
    "name": "solc",
    "version": "0.8.7+commit.e28d00a7.Emscripten.clang"
  },
  "schemaVersion": "3.3.4",
  "updatedAt": "2021-12-07T18:29:50.332Z",
  "devdoc": {
    "kind": "dev",
    "methods": {},
    "version": 1
  },
  "userdoc": {
    "kind": "user",
    "methods": {},
    "version": 1
  }
}